{
  "contractName": "NftFactory",
  "abi": [
    {
      "inputs": [
        {
          "internalType": "address",
          "name": "_storageAddress",
          "type": "address"
        }
      ],
      "stateMutability": "nonpayable",
      "type": "constructor"
    },
    {
      "anonymous": false,
      "inputs": [
        {
          "indexed": false,
          "internalType": "address",
          "name": "tokenAddress",
          "type": "address"
        },
        {
          "indexed": false,
          "internalType": "address",
          "name": "owner",
          "type": "address"
        }
      ],
      "name": "ERC721Created",
      "type": "event"
    },
    {
      "inputs": [
        {
          "internalType": "string",
          "name": "_name",
          "type": "string"
        },
        {
          "internalType": "string",
          "name": "_symbol",
          "type": "string"
        },
        {
          "internalType": "string",
          "name": "_baseUri",
          "type": "string"
        }
      ],
      "name": "deployNewNft",
      "outputs": [
        {
          "internalType": "address",
          "name": "",
          "type": "address"
        }
      ],
      "stateMutability": "nonpayable",
      "type": "function"
    }
  ],
  "bytecode": "0x608060405234801561001057600080fd5b506040516122ec3803806122ec83398101604081905261002f91610054565b600080546001600160a01b0319166001600160a01b0392909216919091179055610084565b60006020828403121561006657600080fd5b81516001600160a01b038116811461007d57600080fd5b9392505050565b612259806100936000396000f3fe608060405234801561001057600080fd5b506004361061002b5760003560e01c8063968b4d7b14610030575b600080fd5b61004361003e366004610278565b61006c565b60405173ffffffffffffffffffffffffffffffffffffffff909116815260200160405180910390f35b60008084848460405161007e90610191565b61008a9392919061036b565b604051809103906000f0801580156100a6573d6000803e3d6000fd5b506040805173ffffffffffffffffffffffffffffffffffffffff831681523360208201529192507ff080e589a49942bdb301617e222a6e18dbc34429e147b1e114f99aae1c0f308a910160405180910390a16000546040517f309e389e00000000000000000000000000000000000000000000000000000000815273ffffffffffffffffffffffffffffffffffffffff9091169063309e389e906101569088908890869033908a906004016103ae565b600060405180830381600087803b15801561017057600080fd5b505af1158015610184573d6000803e3d6000fd5b5092979650505050505050565b611e0c8061041883390190565b7f4e487b7100000000000000000000000000000000000000000000000000000000600052604160045260246000fd5b600082601f8301126101de57600080fd5b813567ffffffffffffffff808211156101f9576101f961019e565b604051601f83017fffffffffffffffffffffffffffffffffffffffffffffffffffffffffffffffe0908116603f0116810190828211818310171561023f5761023f61019e565b8160405283815286602085880101111561025857600080fd5b836020870160208301376000602085830101528094505050505092915050565b60008060006060848603121561028d57600080fd5b833567ffffffffffffffff808211156102a557600080fd5b6102b1878388016101cd565b945060208601359150808211156102c757600080fd5b6102d3878388016101cd565b935060408601359150808211156102e957600080fd5b506102f6868287016101cd565b9150509250925092565b6000815180845260005b818110156103265760208185018101518683018201520161030a565b81811115610338576000602083870101525b50601f017fffffffffffffffffffffffffffffffffffffffffffffffffffffffffffffffe0169290920160200192915050565b60608152600061037e6060830186610300565b82810360208401526103908186610300565b905082810360408401526103a48185610300565b9695505050505050565b60a0815260006103c160a0830188610300565b82810360208401526103d38188610300565b73ffffffffffffffffffffffffffffffffffffffff8781166040860152861660608501528381036080850152905061040b8185610300565b9897505050505050505056fe60806040523480156200001157600080fd5b5060405162001e0c38038062001e0c8339810160408190526200003491620001f8565b8251839083906200004d90600090602085019062000085565b5080516200006390600190602084019062000085565b505081516200007b9150600790602084019062000085565b50505050620002c5565b828054620000939062000289565b90600052602060002090601f016020900481019282620000b7576000855562000102565b82601f10620000d257805160ff191683800117855562000102565b8280016001018555821562000102579182015b8281111562000102578251825591602001919060010190620000e5565b506200011092915062000114565b5090565b5b8082111562000110576000815560010162000115565b634e487b7160e01b600052604160045260246000fd5b600082601f8301126200015357600080fd5b81516001600160401b03808211156200017057620001706200012b565b604051601f8301601f19908116603f011681019082821181831017156200019b576200019b6200012b565b81604052838152602092508683858801011115620001b857600080fd5b600091505b83821015620001dc5785820183015181830184015290820190620001bd565b83821115620001ee5760008385830101525b9695505050505050565b6000806000606084860312156200020e57600080fd5b83516001600160401b03808211156200022657600080fd5b620002348783880162000141565b945060208601519150808211156200024b57600080fd5b620002598783880162000141565b935060408601519150808211156200027057600080fd5b506200027f8682870162000141565b9150509250925092565b600181811c908216806200029e57607f821691505b602082108103620002bf57634e487b7160e01b600052602260045260246000fd5b50919050565b611b3780620002d56000396000f3fe608060405234801561001057600080fd5b50600436106101005760003560e01c80636352211e11610097578063a22cb46511610066578063a22cb46514610214578063b88d4fde14610227578063c87b56dd1461023a578063e985e9c51461024d57600080fd5b80636352211e146101d357806370a08231146101e657806395d89b41146101f9578063a0bcfc7f1461020157600080fd5b80630cac36b2116100d35780630cac36b21461018f5780631249c58b1461019757806323b872dd146101ad57806342842e0e146101c057600080fd5b806301ffc9a71461010557806306fdde031461012d578063081812fc14610142578063095ea7b31461017a575b600080fd5b610118610113366004611474565b610296565b60405190151581526020015b60405180910390f35b61013561037b565b604051610124919061150e565b610155610150366004611521565b61040d565b60405173ffffffffffffffffffffffffffffffffffffffff9091168152602001610124565b61018d610188366004611563565b6104d2565b005b61013561062a565b61019f610639565b604051908152602001610124565b61018d6101bb36600461158d565b610668565b61018d6101ce36600461158d565b6106ef565b6101556101e1366004611521565b61070a565b61019f6101f43660046115c9565b6107a2565b610135610856565b61018d61020f3660046116a7565b610865565b61018d6102223660046116f0565b61087c565b61018d61023536600461172c565b610887565b610135610248366004611521565b610915565b61011861025b3660046117a8565b73ffffffffffffffffffffffffffffffffffffffff918216600090815260056020908152604080832093909416825291909152205460ff1690565b60007fffffffff0000000000000000000000000000000000000000000000000000000082167f80ac58cd00000000000000000000000000000000000000000000000000000000148061032957507fffffffff0000000000000000000000000000000000000000000000000000000082167f5b5e139f00000000000000000000000000000000000000000000000000000000145b8061037557507f01ffc9a7000000000000000000000000000000000000000000000000000000007fffffffff000000000000000000000000000000000000000000000000000000008316145b92915050565b60606000805461038a906117db565b80601f01602080910402602001604051908101604052809291908181526020018280546103b6906117db565b80156104035780601f106103d857610100808354040283529160200191610403565b820191906000526020600020905b8154815290600101906020018083116103e657829003601f168201915b5050505050905090565b60008181526002602052604081205473ffffffffffffffffffffffffffffffffffffffff166104a95760405162461bcd60e51b815260206004820152602c60248201527f4552433732313a20617070726f76656420717565727920666f72206e6f6e657860448201527f697374656e7420746f6b656e000000000000000000000000000000000000000060648201526084015b60405180910390fd5b5060009081526004602052604090205473ffffffffffffffffffffffffffffffffffffffff1690565b60006104dd8261070a565b90508073ffffffffffffffffffffffffffffffffffffffff168373ffffffffffffffffffffffffffffffffffffffff16036105805760405162461bcd60e51b815260206004820152602160248201527f4552433732313a20617070726f76616c20746f2063757272656e74206f776e6560448201527f720000000000000000000000000000000000000000000000000000000000000060648201526084016104a0565b3373ffffffffffffffffffffffffffffffffffffffff821614806105a957506105a9813361025b565b61061b5760405162461bcd60e51b815260206004820152603860248201527f4552433732313a20617070726f76652063616c6c6572206973206e6f74206f7760448201527f6e6572206e6f7220617070726f76656420666f7220616c6c000000000000000060648201526084016104a0565b6106258383610949565b505050565b60606007805461038a906117db565b600060016006600082825461064e919061185d565b92505081905550610661336006546109e9565b5060065490565b6106723382610b77565b6106e45760405162461bcd60e51b815260206004820152603160248201527f4552433732313a207472616e736665722063616c6c6572206973206e6f74206f60448201527f776e6572206e6f7220617070726f76656400000000000000000000000000000060648201526084016104a0565b610625838383610ccd565b61062583838360405180602001604052806000815250610887565b60008181526002602052604081205473ffffffffffffffffffffffffffffffffffffffff16806103755760405162461bcd60e51b815260206004820152602960248201527f4552433732313a206f776e657220717565727920666f72206e6f6e657869737460448201527f656e7420746f6b656e000000000000000000000000000000000000000000000060648201526084016104a0565b600073ffffffffffffffffffffffffffffffffffffffff821661082d5760405162461bcd60e51b815260206004820152602a60248201527f4552433732313a2062616c616e636520717565727920666f7220746865207a6560448201527f726f20616464726573730000000000000000000000000000000000000000000060648201526084016104a0565b5073ffffffffffffffffffffffffffffffffffffffff1660009081526003602052604090205490565b60606001805461038a906117db565b80516108789060079060208401906113aa565b5050565b610878338383610f00565b6108913383610b77565b6109035760405162461bcd60e51b815260206004820152603160248201527f4552433732313a207472616e736665722063616c6c6572206973206e6f74206f60448201527f776e6572206e6f7220617070726f76656400000000000000000000000000000060648201526084016104a0565b61090f84848484611013565b50505050565b606060076109228361109c565b604051602001610933929190611891565b6040516020818303038152906040529050919050565b600081815260046020526040902080547fffffffffffffffffffffffff00000000000000000000000000000000000000001673ffffffffffffffffffffffffffffffffffffffff841690811790915581906109a38261070a565b73ffffffffffffffffffffffffffffffffffffffff167f8c5be1e5ebec7d5bd14f71427d1e84f3dd0314c0f7b2291e5b200ac8c7c3b92560405160405180910390a45050565b73ffffffffffffffffffffffffffffffffffffffff8216610a4c5760405162461bcd60e51b815260206004820181905260248201527f4552433732313a206d696e7420746f20746865207a65726f206164647265737360448201526064016104a0565b60008181526002602052604090205473ffffffffffffffffffffffffffffffffffffffff1615610abe5760405162461bcd60e51b815260206004820152601c60248201527f4552433732313a20746f6b656e20616c7265616479206d696e7465640000000060448201526064016104a0565b73ffffffffffffffffffffffffffffffffffffffff82166000908152600360205260408120805460019290610af490849061185d565b909155505060008181526002602052604080822080547fffffffffffffffffffffffff00000000000000000000000000000000000000001673ffffffffffffffffffffffffffffffffffffffff861690811790915590518392907fddf252ad1be2c89b69c2b068fc378daa952ba7f163c4a11628f55a4df523b3ef908290a45050565b60008181526002602052604081205473ffffffffffffffffffffffffffffffffffffffff16610c0e5760405162461bcd60e51b815260206004820152602c60248201527f4552433732313a206f70657261746f7220717565727920666f72206e6f6e657860448201527f697374656e7420746f6b656e000000000000000000000000000000000000000060648201526084016104a0565b6000610c198361070a565b90508073ffffffffffffffffffffffffffffffffffffffff168473ffffffffffffffffffffffffffffffffffffffff161480610c87575073ffffffffffffffffffffffffffffffffffffffff80821660009081526005602090815260408083209388168352929052205460ff165b80610cc557508373ffffffffffffffffffffffffffffffffffffffff16610cad8461040d565b73ffffffffffffffffffffffffffffffffffffffff16145b949350505050565b8273ffffffffffffffffffffffffffffffffffffffff16610ced8261070a565b73ffffffffffffffffffffffffffffffffffffffff1614610d765760405162461bcd60e51b815260206004820152602560248201527f4552433732313a207472616e736665722066726f6d20696e636f72726563742060448201527f6f776e657200000000000000000000000000000000000000000000000000000060648201526084016104a0565b73ffffffffffffffffffffffffffffffffffffffff8216610dfe5760405162461bcd60e51b8152602060048201526024808201527f4552433732313a207472616e7366657220746f20746865207a65726f2061646460448201527f726573730000000000000000000000000000000000000000000000000000000060648201526084016104a0565b610e09600082610949565b73ffffffffffffffffffffffffffffffffffffffff83166000908152600360205260408120805460019290610e3f9084906119c6565b909155505073ffffffffffffffffffffffffffffffffffffffff82166000908152600360205260408120805460019290610e7a90849061185d565b909155505060008181526002602052604080822080547fffffffffffffffffffffffff00000000000000000000000000000000000000001673ffffffffffffffffffffffffffffffffffffffff86811691821790925591518493918716917fddf252ad1be2c89b69c2b068fc378daa952ba7f163c4a11628f55a4df523b3ef91a4505050565b8173ffffffffffffffffffffffffffffffffffffffff168373ffffffffffffffffffffffffffffffffffffffff1603610f7b5760405162461bcd60e51b815260206004820152601960248201527f4552433732313a20617070726f766520746f2063616c6c65720000000000000060448201526064016104a0565b73ffffffffffffffffffffffffffffffffffffffff83811660008181526005602090815260408083209487168084529482529182902080547fffffffffffffffffffffffffffffffffffffffffffffffffffffffffffffff001686151590811790915591519182527f17307eab39ab6107e8899845ad3d59bd9653f200f220920489ca2b5937696c31910160405180910390a3505050565b61101e848484610ccd565b61102a848484846111d1565b61090f5760405162461bcd60e51b815260206004820152603260248201527f4552433732313a207472616e7366657220746f206e6f6e20455243373231526560448201527f63656976657220696d706c656d656e746572000000000000000000000000000060648201526084016104a0565b6060816000036110df57505060408051808201909152600181527f3000000000000000000000000000000000000000000000000000000000000000602082015290565b8160005b811561110957806110f3816119dd565b91506111029050600a83611a44565b91506110e3565b60008167ffffffffffffffff811115611124576111246115e4565b6040519080825280601f01601f19166020018201604052801561114e576020820181803683370190505b5090505b8415610cc5576111636001836119c6565b9150611170600a86611a58565b61117b90603061185d565b60f81b81838151811061119057611190611a6c565b60200101907effffffffffffffffffffffffffffffffffffffffffffffffffffffffffffff1916908160001a9053506111ca600a86611a44565b9450611152565b600073ffffffffffffffffffffffffffffffffffffffff84163b1561139f576040517f150b7a0200000000000000000000000000000000000000000000000000000000815273ffffffffffffffffffffffffffffffffffffffff85169063150b7a0290611248903390899088908890600401611a9b565b6020604051808303816000875af19250505080156112a1575060408051601f3d9081017fffffffffffffffffffffffffffffffffffffffffffffffffffffffffffffffe016820190925261129e91810190611ae4565b60015b611354573d8080156112cf576040519150601f19603f3d011682016040523d82523d6000602084013e6112d4565b606091505b50805160000361134c5760405162461bcd60e51b815260206004820152603260248201527f4552433732313a207472616e7366657220746f206e6f6e20455243373231526560448201527f63656976657220696d706c656d656e746572000000000000000000000000000060648201526084016104a0565b805181602001fd5b7fffffffff00000000000000000000000000000000000000000000000000000000167f150b7a0200000000000000000000000000000000000000000000000000000000149050610cc5565b506001949350505050565b8280546113b6906117db565b90600052602060002090601f0160209004810192826113d8576000855561141e565b82601f106113f157805160ff191683800117855561141e565b8280016001018555821561141e579182015b8281111561141e578251825591602001919060010190611403565b5061142a92915061142e565b5090565b5b8082111561142a576000815560010161142f565b7fffffffff000000000000000000000000000000000000000000000000000000008116811461147157600080fd5b50565b60006020828403121561148657600080fd5b813561149181611443565b9392505050565b60005b838110156114b357818101518382015260200161149b565b8381111561090f5750506000910152565b600081518084526114dc816020860160208601611498565b601f017fffffffffffffffffffffffffffffffffffffffffffffffffffffffffffffffe0169290920160200192915050565b60208152600061149160208301846114c4565b60006020828403121561153357600080fd5b5035919050565b803573ffffffffffffffffffffffffffffffffffffffff8116811461155e57600080fd5b919050565b6000806040838503121561157657600080fd5b61157f8361153a565b946020939093013593505050565b6000806000606084860312156115a257600080fd5b6115ab8461153a565b92506115b96020850161153a565b9150604084013590509250925092565b6000602082840312156115db57600080fd5b6114918261153a565b7f4e487b7100000000000000000000000000000000000000000000000000000000600052604160045260246000fd5b600067ffffffffffffffff8084111561162e5761162e6115e4565b604051601f85017fffffffffffffffffffffffffffffffffffffffffffffffffffffffffffffffe0908116603f01168101908282118183101715611674576116746115e4565b8160405280935085815286868601111561168d57600080fd5b858560208301376000602087830101525050509392505050565b6000602082840312156116b957600080fd5b813567ffffffffffffffff8111156116d057600080fd5b8201601f810184136116e157600080fd5b610cc584823560208401611613565b6000806040838503121561170357600080fd5b61170c8361153a565b91506020830135801515811461172157600080fd5b809150509250929050565b6000806000806080858703121561174257600080fd5b61174b8561153a565b93506117596020860161153a565b925060408501359150606085013567ffffffffffffffff81111561177c57600080fd5b8501601f8101871361178d57600080fd5b61179c87823560208401611613565b91505092959194509250565b600080604083850312156117bb57600080fd5b6117c48361153a565b91506117d26020840161153a565b90509250929050565b600181811c908216806117ef57607f821691505b602082108103611828577f4e487b7100000000000000000000000000000000000000000000000000000000600052602260045260246000fd5b50919050565b7f4e487b7100000000000000000000000000000000000000000000000000000000600052601160045260246000fd5b600082198211156118705761187061182e565b500190565b60008151611887818560208601611498565b9290920192915050565b600080845481600182811c9150808316806118ad57607f831692505b602080841082036118e5577f4e487b710000000000000000000000000000000000000000000000000000000086526022600452602486fd5b8180156118f9576001811461192857611955565b7fffffffffffffffffffffffffffffffffffffffffffffffffffffffffffffff00861689528489019650611955565b60008b81526020902060005b8681101561194d5781548b820152908501908301611934565b505084890196505b5050505050506119bd61199461198e837f2f00000000000000000000000000000000000000000000000000000000000000815260010190565b86611875565b7f2e6a736f6e000000000000000000000000000000000000000000000000000000815260050190565b95945050505050565b6000828210156119d8576119d861182e565b500390565b60007fffffffffffffffffffffffffffffffffffffffffffffffffffffffffffffffff8203611a0e57611a0e61182e565b5060010190565b7f4e487b7100000000000000000000000000000000000000000000000000000000600052601260045260246000fd5b600082611a5357611a53611a15565b500490565b600082611a6757611a67611a15565b500690565b7f4e487b7100000000000000000000000000000000000000000000000000000000600052603260045260246000fd5b600073ffffffffffffffffffffffffffffffffffffffff808716835280861660208401525083604083015260806060830152611ada60808301846114c4565b9695505050505050565b600060208284031215611af657600080fd5b81516114918161144356fea26469706673582212209aa823d478878cf050a2d0cb7f369689371aa1ce73e2b6ac36614f7e56245d1564736f6c634300080d0033a26469706673582212204f119f65ef60fdab285efaf2e2e0711f140f64a38ea5c9f7b1f886b4208feb7e64736f6c634300080d0033",
  "immutableReferences": {},
  "source": "// SPDX-License-Identifier: GPL-3.0\npragma solidity 0.8.13;\n\nimport \"./Storage.sol\";\nimport \"./simpleNft.sol\";\ncontract NftFactory {\n    event ERC721Created(address tokenAddress, address owner);\n\n    Storage storageContract;\n\n    constructor(address _storageAddress){\n        storageContract = Storage(_storageAddress);\n    }\n    \n    function deployNewNft(\n        string memory _name,\n         string memory _symbol,\n          string memory _baseUri\n          )\n        public\n        returns (address)\n    {\n        simpleNft  nft = new simpleNft(_name, _symbol, _baseUri);\n        emit ERC721Created(address(nft), msg.sender);\n        storageContract.addCollection(_name, _symbol, nft, msg.sender, _baseUri);\n        return address(nft);\n    }\t\n}",
  "sourcePath": "/home/amsteradams/developpement/fork-Opensea/contracts/NftFactory.sol",
  "compiler": {
    "name": "solc",
    "version": "0.8.13+commit.abaa5c0e.Emscripten.clang"
  },
  "schemaVersion": "3.4.6",
  "updatedAt": "2022-05-13T09:26:00.171Z",
  "devdoc": {
    "kind": "dev",
    "methods": {},
    "version": 1
  },
  "userdoc": {
    "kind": "user",
    "methods": {},
    "version": 1
  }
}