{
  "contractName": "NftFactory",
  "abi": [
    {
      "inputs": [
        {
          "internalType": "address",
          "name": "_storageAddress",
          "type": "address"
        }
      ],
      "stateMutability": "nonpayable",
      "type": "constructor"
    },
    {
      "anonymous": false,
      "inputs": [
        {
          "indexed": false,
          "internalType": "address",
          "name": "tokenAddress",
          "type": "address"
        },
        {
          "indexed": false,
          "internalType": "address",
          "name": "owner",
          "type": "address"
        }
      ],
      "name": "ERC721Created",
      "type": "event"
    },
    {
      "inputs": [
        {
          "internalType": "string",
          "name": "_name",
          "type": "string"
        },
        {
          "internalType": "string",
          "name": "_symbol",
          "type": "string"
        },
        {
          "internalType": "string",
          "name": "_description",
          "type": "string"
        }
      ],
      "name": "deployNewNft",
      "outputs": [
        {
          "internalType": "address",
          "name": "",
          "type": "address"
        }
      ],
      "stateMutability": "nonpayable",
      "type": "function"
    }
  ],
  "bytecode": "0x608060405234801561001057600080fd5b50604051611f9a380380611f9a83398101604081905261002f91610054565b600080546001600160a01b0319166001600160a01b0392909216919091179055610084565b60006020828403121561006657600080fd5b81516001600160a01b038116811461007d57600080fd5b9392505050565b611f07806100936000396000f3fe608060405234801561001057600080fd5b506004361061002b5760003560e01c8063968b4d7b14610030575b600080fd5b61004361003e366004610276565b61006c565b60405173ffffffffffffffffffffffffffffffffffffffff909116815260200160405180910390f35b600080838560405161007d9061018f565b610088929190610369565b604051809103906000f0801580156100a4573d6000803e3d6000fd5b506040805173ffffffffffffffffffffffffffffffffffffffff831681523360208201529192507ff080e589a49942bdb301617e222a6e18dbc34429e147b1e114f99aae1c0f308a910160405180910390a16000546040517f309e389e00000000000000000000000000000000000000000000000000000000815273ffffffffffffffffffffffffffffffffffffffff9091169063309e389e906101549088908890869033908a90600401610397565b600060405180830381600087803b15801561016e57600080fd5b505af1158015610182573d6000803e3d6000fd5b5092979650505050505050565b611ad18061040183390190565b7f4e487b7100000000000000000000000000000000000000000000000000000000600052604160045260246000fd5b600082601f8301126101dc57600080fd5b813567ffffffffffffffff808211156101f7576101f761019c565b604051601f83017fffffffffffffffffffffffffffffffffffffffffffffffffffffffffffffffe0908116603f0116810190828211818310171561023d5761023d61019c565b8160405283815286602085880101111561025657600080fd5b836020870160208301376000602085830101528094505050505092915050565b60008060006060848603121561028b57600080fd5b833567ffffffffffffffff808211156102a357600080fd5b6102af878388016101cb565b945060208601359150808211156102c557600080fd5b6102d1878388016101cb565b935060408601359150808211156102e757600080fd5b506102f4868287016101cb565b9150509250925092565b6000815180845260005b8181101561032457602081850181015186830182015201610308565b81811115610336576000602083870101525b50601f017fffffffffffffffffffffffffffffffffffffffffffffffffffffffffffffffe0169290920160200192915050565b60408152600061037c60408301856102fe565b828103602084015261038e81856102fe565b95945050505050565b60a0815260006103aa60a08301886102fe565b82810360208401526103bc81886102fe565b73ffffffffffffffffffffffffffffffffffffffff878116604086015286166060850152838103608085015290506103f481856102fe565b9897505050505050505056fe60806040523480156200001157600080fd5b5060405162001ad138038062001ad18339810160408190526200003491620001e1565b8151829082906200004d9060009060208501906200006e565b508051620000639060019060208401906200006e565b505050505062000287565b8280546200007c906200024b565b90600052602060002090601f016020900481019282620000a05760008555620000eb565b82601f10620000bb57805160ff1916838001178555620000eb565b82800160010185558215620000eb579182015b82811115620000eb578251825591602001919060010190620000ce565b50620000f9929150620000fd565b5090565b5b80821115620000f95760008155600101620000fe565b634e487b7160e01b600052604160045260246000fd5b600082601f8301126200013c57600080fd5b81516001600160401b038082111562000159576200015962000114565b604051601f8301601f19908116603f0116810190828211818310171562000184576200018462000114565b81604052838152602092508683858801011115620001a157600080fd5b600091505b83821015620001c55785820183015181830184015290820190620001a6565b83821115620001d75760008385830101525b9695505050505050565b60008060408385031215620001f557600080fd5b82516001600160401b03808211156200020d57600080fd5b6200021b868387016200012a565b935060208501519150808211156200023257600080fd5b5062000241858286016200012a565b9150509250929050565b600181811c908216806200026057607f821691505b6020821081036200028157634e487b7160e01b600052602260045260246000fd5b50919050565b61183a80620002976000396000f3fe608060405234801561001057600080fd5b50600436106100ea5760003560e01c806370a082311161008c578063b88d4fde11610066578063b88d4fde146101ee578063c87b56dd14610201578063d85d3d2714610214578063e985e9c51461022757600080fd5b806370a08231146101b257806395d89b41146101d3578063a22cb465146101db57600080fd5b8063095ea7b3116100c8578063095ea7b31461016457806323b872dd1461017957806342842e0e1461018c5780636352211e1461019f57600080fd5b806301ffc9a7146100ef57806306fdde0314610117578063081812fc1461012c575b600080fd5b6101026100fd366004611391565b610270565b60405190151581526020015b60405180910390f35b61011f610355565b60405161010e9190611420565b61013f61013a366004611433565b6103e7565b60405173ffffffffffffffffffffffffffffffffffffffff909116815260200161010e565b610177610172366004611475565b6104ac565b005b61017761018736600461149f565b610604565b61017761019a36600461149f565b61068b565b61013f6101ad366004611433565b6106a6565b6101c56101c03660046114db565b61073e565b60405190815260200161010e565b61011f6107f2565b6101776101e93660046114f6565b610801565b6101776101fc3660046115f5565b610810565b61011f61020f366004611433565b61089e565b6101c5610222366004611671565b610940565b6101026102353660046116ba565b73ffffffffffffffffffffffffffffffffffffffff918216600090815260056020908152604080832093909416825291909152205460ff1690565b60007fffffffff0000000000000000000000000000000000000000000000000000000082167f80ac58cd00000000000000000000000000000000000000000000000000000000148061030357507fffffffff0000000000000000000000000000000000000000000000000000000082167f5b5e139f00000000000000000000000000000000000000000000000000000000145b8061034f57507f01ffc9a7000000000000000000000000000000000000000000000000000000007fffffffff000000000000000000000000000000000000000000000000000000008316145b92915050565b606060008054610364906116ed565b80601f0160208091040260200160405190810160405280929190818152602001828054610390906116ed565b80156103dd5780601f106103b2576101008083540402835291602001916103dd565b820191906000526020600020905b8154815290600101906020018083116103c057829003601f168201915b5050505050905090565b60008181526002602052604081205473ffffffffffffffffffffffffffffffffffffffff166104835760405162461bcd60e51b815260206004820152602c60248201527f4552433732313a20617070726f76656420717565727920666f72206e6f6e657860448201527f697374656e7420746f6b656e000000000000000000000000000000000000000060648201526084015b60405180910390fd5b5060009081526004602052604090205473ffffffffffffffffffffffffffffffffffffffff1690565b60006104b7826106a6565b90508073ffffffffffffffffffffffffffffffffffffffff168373ffffffffffffffffffffffffffffffffffffffff160361055a5760405162461bcd60e51b815260206004820152602160248201527f4552433732313a20617070726f76616c20746f2063757272656e74206f776e6560448201527f7200000000000000000000000000000000000000000000000000000000000000606482015260840161047a565b3373ffffffffffffffffffffffffffffffffffffffff8216148061058357506105838133610235565b6105f55760405162461bcd60e51b815260206004820152603860248201527f4552433732313a20617070726f76652063616c6c6572206973206e6f74206f7760448201527f6e6572206e6f7220617070726f76656420666f7220616c6c0000000000000000606482015260840161047a565b6105ff838361097c565b505050565b61060e3382610a1c565b6106805760405162461bcd60e51b815260206004820152603160248201527f4552433732313a207472616e736665722063616c6c6572206973206e6f74206f60448201527f776e6572206e6f7220617070726f766564000000000000000000000000000000606482015260840161047a565b6105ff838383610b72565b6105ff83838360405180602001604052806000815250610810565b60008181526002602052604081205473ffffffffffffffffffffffffffffffffffffffff168061034f5760405162461bcd60e51b815260206004820152602960248201527f4552433732313a206f776e657220717565727920666f72206e6f6e657869737460448201527f656e7420746f6b656e0000000000000000000000000000000000000000000000606482015260840161047a565b600073ffffffffffffffffffffffffffffffffffffffff82166107c95760405162461bcd60e51b815260206004820152602a60248201527f4552433732313a2062616c616e636520717565727920666f7220746865207a6560448201527f726f206164647265737300000000000000000000000000000000000000000000606482015260840161047a565b5073ffffffffffffffffffffffffffffffffffffffff1660009081526003602052604090205490565b606060018054610364906116ed565b61080c338383610da5565b5050565b61081a3383610a1c565b61088c5760405162461bcd60e51b815260206004820152603160248201527f4552433732313a207472616e736665722063616c6c6572206973206e6f74206f60448201527f776e6572206e6f7220617070726f766564000000000000000000000000000000606482015260840161047a565b61089884848484610eb8565b50505050565b60008181526007602052604090208054606091906108bb906116ed565b80601f01602080910402602001604051908101604052809291908181526020018280546108e7906116ed565b80156109345780601f1061090957610100808354040283529160200191610934565b820191906000526020600020905b81548152906001019060200180831161091757829003601f168201915b50505050509050919050565b6000600160066000828254610955919061176f565b9250508190555061096833600654610f41565b610974600654836110cf565b505060065490565b600081815260046020526040902080547fffffffffffffffffffffffff00000000000000000000000000000000000000001673ffffffffffffffffffffffffffffffffffffffff841690811790915581906109d6826106a6565b73ffffffffffffffffffffffffffffffffffffffff167f8c5be1e5ebec7d5bd14f71427d1e84f3dd0314c0f7b2291e5b200ac8c7c3b92560405160405180910390a45050565b60008181526002602052604081205473ffffffffffffffffffffffffffffffffffffffff16610ab35760405162461bcd60e51b815260206004820152602c60248201527f4552433732313a206f70657261746f7220717565727920666f72206e6f6e657860448201527f697374656e7420746f6b656e0000000000000000000000000000000000000000606482015260840161047a565b6000610abe836106a6565b90508073ffffffffffffffffffffffffffffffffffffffff168473ffffffffffffffffffffffffffffffffffffffff161480610b2c575073ffffffffffffffffffffffffffffffffffffffff80821660009081526005602090815260408083209388168352929052205460ff165b80610b6a57508373ffffffffffffffffffffffffffffffffffffffff16610b52846103e7565b73ffffffffffffffffffffffffffffffffffffffff16145b949350505050565b8273ffffffffffffffffffffffffffffffffffffffff16610b92826106a6565b73ffffffffffffffffffffffffffffffffffffffff1614610c1b5760405162461bcd60e51b815260206004820152602560248201527f4552433732313a207472616e736665722066726f6d20696e636f72726563742060448201527f6f776e6572000000000000000000000000000000000000000000000000000000606482015260840161047a565b73ffffffffffffffffffffffffffffffffffffffff8216610ca35760405162461bcd60e51b8152602060048201526024808201527f4552433732313a207472616e7366657220746f20746865207a65726f2061646460448201527f7265737300000000000000000000000000000000000000000000000000000000606482015260840161047a565b610cae60008261097c565b73ffffffffffffffffffffffffffffffffffffffff83166000908152600360205260408120805460019290610ce4908490611787565b909155505073ffffffffffffffffffffffffffffffffffffffff82166000908152600360205260408120805460019290610d1f90849061176f565b909155505060008181526002602052604080822080547fffffffffffffffffffffffff00000000000000000000000000000000000000001673ffffffffffffffffffffffffffffffffffffffff86811691821790925591518493918716917fddf252ad1be2c89b69c2b068fc378daa952ba7f163c4a11628f55a4df523b3ef91a4505050565b8173ffffffffffffffffffffffffffffffffffffffff168373ffffffffffffffffffffffffffffffffffffffff1603610e205760405162461bcd60e51b815260206004820152601960248201527f4552433732313a20617070726f766520746f2063616c6c657200000000000000604482015260640161047a565b73ffffffffffffffffffffffffffffffffffffffff83811660008181526005602090815260408083209487168084529482529182902080547fffffffffffffffffffffffffffffffffffffffffffffffffffffffffffffff001686151590811790915591519182527f17307eab39ab6107e8899845ad3d59bd9653f200f220920489ca2b5937696c31910160405180910390a3505050565b610ec3848484610b72565b610ecf848484846110ee565b6108985760405162461bcd60e51b815260206004820152603260248201527f4552433732313a207472616e7366657220746f206e6f6e20455243373231526560448201527f63656976657220696d706c656d656e7465720000000000000000000000000000606482015260840161047a565b73ffffffffffffffffffffffffffffffffffffffff8216610fa45760405162461bcd60e51b815260206004820181905260248201527f4552433732313a206d696e7420746f20746865207a65726f2061646472657373604482015260640161047a565b60008181526002602052604090205473ffffffffffffffffffffffffffffffffffffffff16156110165760405162461bcd60e51b815260206004820152601c60248201527f4552433732313a20746f6b656e20616c7265616479206d696e74656400000000604482015260640161047a565b73ffffffffffffffffffffffffffffffffffffffff8216600090815260036020526040812080546001929061104c90849061176f565b909155505060008181526002602052604080822080547fffffffffffffffffffffffff00000000000000000000000000000000000000001673ffffffffffffffffffffffffffffffffffffffff861690811790915590518392907fddf252ad1be2c89b69c2b068fc378daa952ba7f163c4a11628f55a4df523b3ef908290a45050565b600082815260076020908152604090912082516105ff928401906112c7565b600073ffffffffffffffffffffffffffffffffffffffff84163b156112bc576040517f150b7a0200000000000000000000000000000000000000000000000000000000815273ffffffffffffffffffffffffffffffffffffffff85169063150b7a029061116590339089908890889060040161179e565b6020604051808303816000875af19250505080156111be575060408051601f3d9081017fffffffffffffffffffffffffffffffffffffffffffffffffffffffffffffffe01682019092526111bb918101906117e7565b60015b611271573d8080156111ec576040519150601f19603f3d011682016040523d82523d6000602084013e6111f1565b606091505b5080516000036112695760405162461bcd60e51b815260206004820152603260248201527f4552433732313a207472616e7366657220746f206e6f6e20455243373231526560448201527f63656976657220696d706c656d656e7465720000000000000000000000000000606482015260840161047a565b805181602001fd5b7fffffffff00000000000000000000000000000000000000000000000000000000167f150b7a0200000000000000000000000000000000000000000000000000000000149050610b6a565b506001949350505050565b8280546112d3906116ed565b90600052602060002090601f0160209004810192826112f5576000855561133b565b82601f1061130e57805160ff191683800117855561133b565b8280016001018555821561133b579182015b8281111561133b578251825591602001919060010190611320565b5061134792915061134b565b5090565b5b80821115611347576000815560010161134c565b7fffffffff000000000000000000000000000000000000000000000000000000008116811461138e57600080fd5b50565b6000602082840312156113a357600080fd5b81356113ae81611360565b9392505050565b6000815180845260005b818110156113db576020818501810151868301820152016113bf565b818111156113ed576000602083870101525b50601f017fffffffffffffffffffffffffffffffffffffffffffffffffffffffffffffffe0169290920160200192915050565b6020815260006113ae60208301846113b5565b60006020828403121561144557600080fd5b5035919050565b803573ffffffffffffffffffffffffffffffffffffffff8116811461147057600080fd5b919050565b6000806040838503121561148857600080fd5b6114918361144c565b946020939093013593505050565b6000806000606084860312156114b457600080fd5b6114bd8461144c565b92506114cb6020850161144c565b9150604084013590509250925092565b6000602082840312156114ed57600080fd5b6113ae8261144c565b6000806040838503121561150957600080fd5b6115128361144c565b91506020830135801515811461152757600080fd5b809150509250929050565b7f4e487b7100000000000000000000000000000000000000000000000000000000600052604160045260246000fd5b600067ffffffffffffffff8084111561157c5761157c611532565b604051601f85017fffffffffffffffffffffffffffffffffffffffffffffffffffffffffffffffe0908116603f011681019082821181831017156115c2576115c2611532565b816040528093508581528686860111156115db57600080fd5b858560208301376000602087830101525050509392505050565b6000806000806080858703121561160b57600080fd5b6116148561144c565b93506116226020860161144c565b925060408501359150606085013567ffffffffffffffff81111561164557600080fd5b8501601f8101871361165657600080fd5b61166587823560208401611561565b91505092959194509250565b60006020828403121561168357600080fd5b813567ffffffffffffffff81111561169a57600080fd5b8201601f810184136116ab57600080fd5b610b6a84823560208401611561565b600080604083850312156116cd57600080fd5b6116d68361144c565b91506116e46020840161144c565b90509250929050565b600181811c9082168061170157607f821691505b60208210810361173a577f4e487b7100000000000000000000000000000000000000000000000000000000600052602260045260246000fd5b50919050565b7f4e487b7100000000000000000000000000000000000000000000000000000000600052601160045260246000fd5b6000821982111561178257611782611740565b500190565b60008282101561179957611799611740565b500390565b600073ffffffffffffffffffffffffffffffffffffffff8087168352808616602084015250836040830152608060608301526117dd60808301846113b5565b9695505050505050565b6000602082840312156117f957600080fd5b81516113ae8161136056fea2646970667358221220dcb4556479ae7fc6d95dd593c2b27bac1a7950606236fbc03405d06fd24c474764736f6c634300080d0033a264697066735822122055b23bd00393dc402db8f3df4025ff566f739702814afb21f0d5f0712aabe6ae64736f6c634300080d0033",
  "immutableReferences": {},
  "source": "// SPDX-License-Identifier: GPL-3.0\npragma solidity 0.8.13;\n\nimport \"./Storage.sol\";\nimport \"./SimpleNft.sol\";\ncontract NftFactory {\n    event ERC721Created(address tokenAddress, address owner);\n\n    Storage storageContract;\n\n    constructor(address _storageAddress){\n        storageContract = Storage(_storageAddress);\n    }\n    \n    function deployNewNft(\n        string memory _name,\n        string memory _symbol,\n        string memory _description\n          )\n        public\n        returns (address)\n    {\n        SimpleNft  nft = new SimpleNft(_symbol, _name);\n        emit ERC721Created(address(nft), msg.sender);\n        storageContract.addCollection(_name, _symbol, nft, msg.sender, _description);\n        return address(nft);\n    }\t\n}",
  "sourcePath": "/home/amsteradams/developpement/fork-Opensea/contracts/NftFactory.sol",
  "compiler": {
    "name": "solc",
    "version": "0.8.13+commit.abaa5c0e.Emscripten.clang"
  },
  "schemaVersion": "3.4.6",
  "updatedAt": "2022-05-14T21:15:18.241Z",
  "networkType": "ethereum",
  "devdoc": {
    "kind": "dev",
    "methods": {},
    "version": 1
  },
  "userdoc": {
    "kind": "user",
    "methods": {},
    "version": 1
  }
}