{
  "contractName": "SellingFactory",
  "abi": [
    {
      "anonymous": false,
      "inputs": [
        {
          "indexed": false,
          "internalType": "address",
          "name": "_addr",
          "type": "address"
        }
      ],
      "name": "Debug",
      "type": "event"
    },
    {
      "anonymous": false,
      "inputs": [
        {
          "indexed": true,
          "internalType": "address",
          "name": "_contract",
          "type": "address"
        },
        {
          "indexed": false,
          "internalType": "address",
          "name": "_seller",
          "type": "address"
        }
      ],
      "name": "NewAuction",
      "type": "event"
    },
    {
      "anonymous": false,
      "inputs": [
        {
          "indexed": true,
          "internalType": "address",
          "name": "_contract",
          "type": "address"
        },
        {
          "indexed": false,
          "internalType": "address",
          "name": "_seller",
          "type": "address"
        }
      ],
      "name": "NewSale",
      "type": "event"
    },
    {
      "inputs": [
        {
          "internalType": "address",
          "name": "_nft",
          "type": "address"
        },
        {
          "internalType": "uint256",
          "name": "_nftId",
          "type": "uint256"
        },
        {
          "internalType": "uint256",
          "name": "_price",
          "type": "uint256"
        },
        {
          "internalType": "uint32",
          "name": "_auctionTime",
          "type": "uint32"
        }
      ],
      "name": "newSaleOrAuction",
      "outputs": [],
      "stateMutability": "nonpayable",
      "type": "function"
    },
    {
      "inputs": [],
      "name": "getAllSales",
      "outputs": [
        {
          "internalType": "address[]",
          "name": "",
          "type": "address[]"
        }
      ],
      "stateMutability": "view",
      "type": "function",
      "constant": true
    },
    {
      "inputs": [],
      "name": "getAllAuctions",
      "outputs": [
        {
          "internalType": "address[]",
          "name": "",
          "type": "address[]"
        }
      ],
      "stateMutability": "view",
      "type": "function",
      "constant": true
    }
  ],
  "bytecode": "0x608060405234801561001057600080fd5b50611680806100206000396000f3fe608060405234801561001057600080fd5b50600436106100415760003560e01c8063333969171461004657806373e2279414610064578063cbd2bdfd14610079575b600080fd5b61004e610081565b60405161005b91906103b7565b60405180910390f35b610077610072366004610411565b6100f0565b005b61004e61033d565b606060008054806020026020016040519081016040528092919081815260200182805480156100e657602002820191906000526020600020905b815473ffffffffffffffffffffffffffffffffffffffff1681526001909101906020018083116100bb575b5050505050905090565b8063ffffffff1660000361021c576000848484600033604051610112906103aa565b73ffffffffffffffffffffffffffffffffffffffff95861681526020810194909452604084019290925263ffffffff166060830152909116608082015260a001604051809103906000f08015801561016e573d6000803e3d6000fd5b50600080546001810182559080527f290decd9548b62a8d60345a988386fc84ba6bc95484008f6362f93160ef3e5630180547fffffffffffffffffffffffff00000000000000000000000000000000000000001673ffffffffffffffffffffffffffffffffffffffff8316908117909155604051338152919250907f83f35c3d500677e8300bf0bbf471882d821904d2b410c5df88c5ca5d3ec0907a9060200160405180910390a250610337565b6000848484843360405161022f906103aa565b73ffffffffffffffffffffffffffffffffffffffff95861681526020810194909452604084019290925263ffffffff166060830152909116608082015260a001604051809103906000f08015801561028b573d6000803e3d6000fd5b506001805480820182556000919091527fb10e2d527612073b26eecdfd717e6a320cf44b4afac2b0732d9fcbe2b7fa0cf60180547fffffffffffffffffffffffff00000000000000000000000000000000000000001673ffffffffffffffffffffffffffffffffffffffff8316908117909155604051338152919250907f3d7974c32ce472d784c795bc3d4465e0b7d5d323530e5bd66c1e93586f22179f9060200160405180910390a2505b50505050565b606060018054806020026020016040519081016040528092919081815260200182805480156100e65760200282019190600052602060002090815473ffffffffffffffffffffffffffffffffffffffff1681526001909101906020018083116100bb575050505050905090565b6111cd8061047e83390190565b6020808252825182820181905260009190848201906040850190845b8181101561040557835173ffffffffffffffffffffffffffffffffffffffff16835292840192918401916001016103d3565b50909695505050505050565b6000806000806080858703121561042757600080fd5b843573ffffffffffffffffffffffffffffffffffffffff8116811461044b57600080fd5b93506020850135925060408501359150606085013563ffffffff8116811461047257600080fd5b93969295509093505056fe608060405234801561001057600080fd5b506040516111cd3803806111cd83398101604081905261002f916100af565b600080546001600160a01b039687166001600160a01b0319918216179091556001949094556004805463ffffffff9093166401000000000263ffffffff60201b19909316929092179091556002805491909416921691909117909155600555610111565b80516001600160a01b03811681146100aa57600080fd5b919050565b600080600080600060a086880312156100c757600080fd5b6100d086610093565b94506020860151935060408601519250606086015163ffffffff811681146100f757600080fd5b915061010560808701610093565b90509295509295909350565b6110ad806101206000396000f3fe60806040526004361061016e5760003560e01c806347ccca02116100cb578063a6f2ae3a1161007f578063d57bde7911610059578063d57bde79146103be578063ee2679bc146103d4578063efbe1c1c146103f357600080fd5b8063a6f2ae3a1461038b578063be9a655514610393578063c6bc5182146103a857600080fd5b80637cc3ae8c116100b05780637cc3ae8c146103295780637e5e219c1461033f57806391f901571461035257600080fd5b806347ccca02146102cf57806362ea82db146102fc57600080fd5b80631998aeef11610122578063359cbbc911610107578063359cbbc9146102915780633ccfd60b146102b257806345710074146102ba57600080fd5b80631998aeef1461026f5780631f2698ab1461027757600080fd5b806312065fe01161015357806312065fe0146101e857806312fa6feb14610205578063155f586d1461023557600080fd5b806308551a531461017a5780630afe6902146101d157600080fd5b3661017557005b600080fd5b34801561018657600080fd5b506002546101a79073ffffffffffffffffffffffffffffffffffffffff1681565b60405173ffffffffffffffffffffffffffffffffffffffff90911681526020015b60405180910390f35b3480156101dd57600080fd5b506101e6610408565b005b3480156101f457600080fd5b50475b6040519081526020016101c8565b34801561021157600080fd5b506004546102259062010000900460ff1681565b60405190151581526020016101c8565b34801561024157600080fd5b5060045461025a90640100000000900463ffffffff1681565b60405163ffffffff90911681526020016101c8565b6101e66104b1565b34801561028357600080fd5b506004546102259060ff1681565b34801561029d57600080fd5b50600454610225906301000000900460ff1681565b6101e661069b565b3480156102c657600080fd5b506101e66107f4565b3480156102db57600080fd5b506000546101a79073ffffffffffffffffffffffffffffffffffffffff1681565b34801561030857600080fd5b506101f7610317366004610ffb565b60066020526000908152604090205481565b34801561033557600080fd5b506101f760035481565b34801561034b57600080fd5b50426101f7565b34801561035e57600080fd5b506004546101a79068010000000000000000900473ffffffffffffffffffffffffffffffffffffffff1681565b6101e661095b565b34801561039f57600080fd5b506101e6610b22565b3480156103b457600080fd5b506101f760015481565b3480156103ca57600080fd5b506101f760055481565b3480156103e057600080fd5b5060045461022590610100900460ff1681565b3480156103ff57600080fd5b506101e6610cb7565b33600081815260066020526040808220805490839055600480547fffffffffffffffffffffffffffffffffffffffffffffffffffffffff00ffffff166301000000179055905190929183156108fc02918491818181858888f19350505050158015610477573d6000803e3d6000fd5b5060405181815233907f884edad9ce6fa2440d8a54cc123490eb96d2768479d49ff9c7366125a9424364906020015b60405180910390a250565b600454610100900460ff1661050d5760405162461bcd60e51b815260206004820152600b60248201527f6e6f74207374617274656400000000000000000000000000000000000000000060448201526064015b60405180910390fd5b600354421061055e5760405162461bcd60e51b815260206004820152600560248201527f656e6465640000000000000000000000000000000000000000000000000000006044820152606401610504565b60055434116105af5760405162461bcd60e51b815260206004820152600f60248201527f76616c7565203c206869676865737400000000000000000000000000000000006044820152606401610504565b60045468010000000000000000900473ffffffffffffffffffffffffffffffffffffffff16156106255760055460045468010000000000000000900473ffffffffffffffffffffffffffffffffffffffff166000908152600660205260408120805490919061061f908490611038565b90915550505b600480547fffffffff0000000000000000000000000000000000000000ffffffffffffffff1633680100000000000000008102919091179091553460058190556040519081527fe684a55f31b79eca403df938249029212a5925ec6be8012e099b45bc1019e5d2906020015b60405180910390a2565b60025473ffffffffffffffffffffffffffffffffffffffff1633146107025760405162461bcd60e51b815260206004820152600760248201527f43686561706572000000000000000000000000000000000000000000000000006044820152606401610504565b60045462010000900460ff16151560011461075f5760405162461bcd60e51b815260206004820152600960248201527f6e6f7420656e64656400000000000000000000000000000000000000000000006044820152606401610504565b600480547fffffffffffffffffffffffffffffffffffffffffffffffffffffffff00ffffff166301000000179055600554604051600091339181156108fc02919084818181858888f193505050501580156107be573d6000803e3d6000fd5b5060055460405190815233907f884edad9ce6fa2440d8a54cc123490eb96d2768479d49ff9c7366125a9424364906020016104a6565b60045460ff16156108475760405162461bcd60e51b815260206004820152601a60248201527f63726561746520616e6f746865722073616c6520706c656173650000000000006044820152606401610504565b6000546002546001546040517f23b872dd00000000000000000000000000000000000000000000000000000000815273ffffffffffffffffffffffffffffffffffffffff928316600482015230602482015260448101919091529116906323b872dd90606401600060405180830381600087803b1580156108c757600080fd5b505af11580156108db573d6000803e3d6000fd5b5050600480547fffffffffffffffffffffffffffffffffffffffffffffffffffffffffffffff00166001179055505060025460055460405173ffffffffffffffffffffffffffffffffffffffff909216917f5e5e995ce3133561afceaa51a9a154d5db228cd7525d34df5185582c18d3df09916106919190815260200190565b60045460ff166109ad5760405162461bcd60e51b815260206004820152600b60248201527f6e6f7420737461727465640000000000000000000000000000000000000000006044820152606401610504565b6005543410156109bc57600080fd5b600554604051600091309181156108fc02919084818181858888f19350505050905080610a2b5760405162461bcd60e51b815260206004820152601360248201527f6661696c75726520746f2073656e6420657468000000000000000000000000006044820152606401610504565b6000546001546040517f23b872dd000000000000000000000000000000000000000000000000000000008152306004820152336024820152604481019190915273ffffffffffffffffffffffffffffffffffffffff909116906323b872dd90606401600060405180830381600087803b158015610aa757600080fd5b505af1158015610abb573d6000803e3d6000fd5b5050600480547fffffffffffffffffffffffffffffffffffffffffffffffffffffffffff00ffff1662010000179055505060055460405133917fc55650ccda1011e1cdc769b1fbf546ebb8c97800b6072b49e06cd560305b1d67916104a691815260200190565b600454610100900460ff1615610b7a5760405162461bcd60e51b815260206004820152600760248201527f73746172746564000000000000000000000000000000000000000000000000006044820152606401610504565b6000546002546001546040517f23b872dd00000000000000000000000000000000000000000000000000000000815273ffffffffffffffffffffffffffffffffffffffff928316600482015230602482015260448101919091529116906323b872dd90606401600060405180830381600087803b158015610bfa57600080fd5b505af1158015610c0e573d6000803e3d6000fd5b5050600480547fffffffffffffffffffffffffffffffffffffffffffffffffffffffffffff00ff166101001790819055610c5a925063ffffffff64010000000090910416905042611038565b6003556002546005546040805173ffffffffffffffffffffffffffffffffffffffff909316835260208301919091527fcfb9c5312b25ec7b809d61e638df25f749eae5d5c25399e1c93d1d319bfd582191015b60405180910390a1565b600454610100900460ff16610d0e5760405162461bcd60e51b815260206004820152600b60248201527f6e6f7420737461727465640000000000000000000000000000000000000000006044820152606401610504565b600354421015610d605760405162461bcd60e51b815260206004820152600960248201527f6e6f7420656e64656400000000000000000000000000000000000000000000006044820152606401610504565b60045462010000900460ff1615610db95760405162461bcd60e51b815260206004820152600560248201527f656e6465640000000000000000000000000000000000000000000000000000006044820152606401610504565b600480547fffffffffffffffffffffffffffffffffffffffffffffffffffffffffff00ffff1662010000179081905568010000000000000000900473ffffffffffffffffffffffffffffffffffffffff1615610f0357600054600480546001546040517f42842e0e000000000000000000000000000000000000000000000000000000008152309381019390935273ffffffffffffffffffffffffffffffffffffffff68010000000000000000909204821660248401526044830152909116906342842e0e90606401600060405180830381600087803b158015610e9c57600080fd5b505af1158015610eb0573d6000803e3d6000fd5b505060025460055460405173ffffffffffffffffffffffffffffffffffffffff909216935080156108fc029250906000818181858888f19350505050158015610efd573d6000803e3d6000fd5b50610f9c565b6000546002546001546040517f42842e0e00000000000000000000000000000000000000000000000000000000815230600482015273ffffffffffffffffffffffffffffffffffffffff928316602482015260448101919091529116906342842e0e90606401600060405180830381600087803b158015610f8357600080fd5b505af1158015610f97573d6000803e3d6000fd5b505050505b600454600554604080516801000000000000000090930473ffffffffffffffffffffffffffffffffffffffff16835260208301919091527f7d7570b046e5ead3a4f3fbc9fa2445113625a1e79823776146316bafed6b8cc59101610cad565b60006020828403121561100d57600080fd5b813573ffffffffffffffffffffffffffffffffffffffff8116811461103157600080fd5b9392505050565b60008219821115611072577f4e487b7100000000000000000000000000000000000000000000000000000000600052601160045260246000fd5b50019056fea2646970667358221220af3570fa74698d38f20d6a89d0ee761dc247185742f8e1a6f7a4cc73818984c764736f6c634300080d0033a2646970667358221220cb52cd0d5a03bc79560a30031d2d15dd9c1c5304911592a0914fb6d7e867351a64736f6c634300080d0033",
  "immutableReferences": {},
  "source": "// SPDX-License-Identifier: MIT\npragma solidity ^0.8.13;\n///@author Adam\n\nimport \"./AuctionOrSale.sol\";\n\ncontract SellingFactory{\n    ///@dev il faudrait crer une fonction qui nettoie les tableaux et qui se lance  chaque cration de auctionOrSale\n    address[] allSales; //stockage des collections en vente directe\n    address[] allAuctions;//stockage des collections aux encheres\n\n\n    event NewSale(address indexed _contract, address _seller);\n    event NewAuction(address indexed _contract, address _seller);\n\n    event Debug(address _addr);\n    /**\n    *@dev impossible de faire 2 contrats  cause du problme d'interface\n    *@notice cre un nouveau contrat de vente ou d'auction pour un nft\n    *@param _nft est l'addresse de la collection du nft\n    *@param _nftId est l'id du nft\n    *@param _price est le prix de vente dans le cas d'une sale, et le prix de dpart pour une auction\n    *@param _auctionTime est le temps que doit durer l'enchere. Si il est  zero la fonction cre une vente, sinon une auction \n    */\n    function newSaleOrAuction(address _nft, uint _nftId, uint _price, uint32 _auctionTime)external{\n        if(_auctionTime == 0){\n            AuctionOrSale _contract = new AuctionOrSale(_nft, _nftId, _price, 0, payable(msg.sender));\n            allSales.push(address(_contract));\n            emit NewSale(address(_contract), msg.sender);\n        }\n        else{\n            AuctionOrSale _contract = new AuctionOrSale(_nft, _nftId, _price, _auctionTime, payable(msg.sender));\n            allAuctions.push(address(_contract));\n            emit NewAuction(address(_contract), msg.sender);\n        }\n    }\n\n    function getAllSales()external view returns(address [] memory){\n        return allSales;\n    }\n\n    function getAllAuctions()external view returns(address [] memory){\n        return allAuctions;\n    }\n}",
  "sourcePath": "/home/amsteradams/developpement/fork-Opensea/contracts/SellingFactory.sol",
  "compiler": {
    "name": "solc",
    "version": "0.8.13+commit.abaa5c0e.Emscripten.clang"
  },
  "schemaVersion": "3.4.6",
  "updatedAt": "2022-05-15T15:56:45.308Z",
  "networkType": "ethereum",
  "devdoc": {
    "kind": "dev",
    "methods": {
      "newSaleOrAuction(address,uint256,uint256,uint32)": {
        "details": "impossible de faire 2 contrats  cause du problme d'interface",
        "params": {
          "_auctionTime": "est le temps que doit durer l'enchere. Si il est  zero la fonction cre une vente, sinon une auction ",
          "_nft": "est l'addresse de la collection du nft",
          "_nftId": "est l'id du nft",
          "_price": "est le prix de vente dans le cas d'une sale, et le prix de dpart pour une auction"
        }
      }
    },
    "stateVariables": {
      "allSales": {
        "details": "il faudrait crer une fonction qui nettoie les tableaux et qui se lance  chaque cration de auctionOrSale"
      }
    },
    "version": 1
  },
  "userdoc": {
    "kind": "user",
    "methods": {
      "newSaleOrAuction(address,uint256,uint256,uint32)": {
        "notice": "cre un nouveau contrat de vente ou d'auction pour un nft"
      }
    },
    "version": 1
  }
}