{
  "contractName": "SellingFactory",
  "abi": [
    {
      "anonymous": false,
      "inputs": [
        {
          "indexed": false,
          "internalType": "address",
          "name": "_addr",
          "type": "address"
        }
      ],
      "name": "Debug",
      "type": "event"
    },
    {
      "anonymous": false,
      "inputs": [
        {
          "indexed": true,
          "internalType": "address",
          "name": "_contract",
          "type": "address"
        },
        {
          "indexed": false,
          "internalType": "address",
          "name": "_seller",
          "type": "address"
        }
      ],
      "name": "NewAuction",
      "type": "event"
    },
    {
      "anonymous": false,
      "inputs": [
        {
          "indexed": true,
          "internalType": "address",
          "name": "_contract",
          "type": "address"
        },
        {
          "indexed": false,
          "internalType": "address",
          "name": "_seller",
          "type": "address"
        }
      ],
      "name": "NewSale",
      "type": "event"
    },
    {
      "inputs": [
        {
          "internalType": "address",
          "name": "_nft",
          "type": "address"
        },
        {
          "internalType": "uint256",
          "name": "_nftId",
          "type": "uint256"
        },
        {
          "internalType": "uint256",
          "name": "_price",
          "type": "uint256"
        },
        {
          "internalType": "uint32",
          "name": "_auctionTime",
          "type": "uint32"
        }
      ],
      "name": "newSaleOrAuction",
      "outputs": [],
      "stateMutability": "nonpayable",
      "type": "function"
    }
  ],
  "bytecode": "0x608060405234801561001057600080fd5b506114b6806100206000396000f3fe608060405234801561001057600080fd5b506004361061002b5760003560e01c806373e2279414610030575b600080fd5b61004361003e36600461029f565b610045565b005b8063ffffffff1660000361017157600084848460003360405161006790610292565b73ffffffffffffffffffffffffffffffffffffffff95861681526020810194909452604084019290925263ffffffff166060830152909116608082015260a001604051809103906000f0801580156100c3573d6000803e3d6000fd5b50600080546001810182559080527f290decd9548b62a8d60345a988386fc84ba6bc95484008f6362f93160ef3e5630180547fffffffffffffffffffffffff00000000000000000000000000000000000000001673ffffffffffffffffffffffffffffffffffffffff8316908117909155604051338152919250907f83f35c3d500677e8300bf0bbf471882d821904d2b410c5df88c5ca5d3ec0907a9060200160405180910390a25061028c565b6000848484843360405161018490610292565b73ffffffffffffffffffffffffffffffffffffffff95861681526020810194909452604084019290925263ffffffff166060830152909116608082015260a001604051809103906000f0801580156101e0573d6000803e3d6000fd5b506001805480820182556000919091527fb10e2d527612073b26eecdfd717e6a320cf44b4afac2b0732d9fcbe2b7fa0cf60180547fffffffffffffffffffffffff00000000000000000000000000000000000000001673ffffffffffffffffffffffffffffffffffffffff8316908117909155604051338152919250907f3d7974c32ce472d784c795bc3d4465e0b7d5d323530e5bd66c1e93586f22179f9060200160405180910390a2505b50505050565b6111758061030c83390190565b600080600080608085870312156102b557600080fd5b843573ffffffffffffffffffffffffffffffffffffffff811681146102d957600080fd5b93506020850135925060408501359150606085013563ffffffff8116811461030057600080fd5b93969295509093505056fe608060405234801561001057600080fd5b5060405161117538038061117583398101604081905261002f916100ae565b600080546001600160a01b039687166001600160a01b0319918216179091556001949094556004805463ffffffff90931663010000000266ffffffff00000019909316929092179091556002805491909416921691909117909155600555610110565b80516001600160a01b03811681146100a957600080fd5b919050565b600080600080600060a086880312156100c657600080fd5b6100cf86610092565b94506020860151935060408601519250606086015163ffffffff811681146100f657600080fd5b915061010460808701610092565b90509295509295909350565b6110568061011f6000396000f3fe6080604052600436106101635760003560e01c806362ea82db116100c0578063be9a655511610074578063d57bde7911610059578063d57bde7914610390578063ee2679bc146103a6578063efbe1c1c146103c557600080fd5b8063be9a655514610365578063c6bc51821461037a57600080fd5b80637e5e219c116100a55780637e5e219c1461031257806391f9015714610325578063a6f2ae3a1461035d57600080fd5b806362ea82db146102cf5780637cc3ae8c146102fc57600080fd5b80631998aeef116101175780633ccfd60b116100fc5780633ccfd60b14610285578063457100741461028d57806347ccca02146102a257600080fd5b80631998aeef146102635780631f2698ab1461026b57600080fd5b806312065fe01161014857806312065fe0146101dd57806312fa6feb146101fa578063155f586d1461022a57600080fd5b806308551a531461016f5780630afe6902146101c657600080fd5b3661016a57005b600080fd5b34801561017b57600080fd5b5060025461019c9073ffffffffffffffffffffffffffffffffffffffff1681565b60405173ffffffffffffffffffffffffffffffffffffffff90911681526020015b60405180910390f35b3480156101d257600080fd5b506101db6103da565b005b3480156101e957600080fd5b50475b6040519081526020016101bd565b34801561020657600080fd5b5060045461021a9062010000900460ff1681565b60405190151581526020016101bd565b34801561023657600080fd5b5060045461024e906301000000900463ffffffff1681565b60405163ffffffff90911681526020016101bd565b6101db610455565b34801561027757600080fd5b5060045461021a9060ff1681565b6101db61068a565b34801561029957600080fd5b506101db6106f1565b3480156102ae57600080fd5b5060005461019c9073ffffffffffffffffffffffffffffffffffffffff1681565b3480156102db57600080fd5b506101ec6102ea366004610fa4565b60066020526000908152604090205481565b34801561030857600080fd5b506101ec60035481565b34801561031e57600080fd5b50426101ec565b34801561033157600080fd5b5060045461019c90670100000000000000900473ffffffffffffffffffffffffffffffffffffffff1681565b6101db610872565b34801561037157600080fd5b506101db610a67565b34801561038657600080fd5b506101ec60015481565b34801561039c57600080fd5b506101ec60055481565b3480156103b257600080fd5b5060045461021a90610100900460ff1681565b3480156103d157600080fd5b506101db610c15565b33600081815260066020526040808220805490839055905190929183156108fc02918491818181858888f1935050505015801561041b573d6000803e3d6000fd5b5060405181815233907f884edad9ce6fa2440d8a54cc123490eb96d2768479d49ff9c7366125a9424364906020015b60405180910390a250565b600454610100900460ff166104cb576040517f08c379a000000000000000000000000000000000000000000000000000000000815260206004820152600b60248201527f6e6f74207374617274656400000000000000000000000000000000000000000060448201526064015b60405180910390fd5b6003544210610536576040517f08c379a000000000000000000000000000000000000000000000000000000000815260206004820152600560248201527f656e64656400000000000000000000000000000000000000000000000000000060448201526064016104c2565b60055434116105a1576040517f08c379a000000000000000000000000000000000000000000000000000000000815260206004820152600f60248201527f76616c7565203c2068696768657374000000000000000000000000000000000060448201526064016104c2565b600454670100000000000000900473ffffffffffffffffffffffffffffffffffffffff161561061557600554600454670100000000000000900473ffffffffffffffffffffffffffffffffffffffff166000908152600660205260408120805490919061060f908490610fe1565b90915550505b600480547fffffffffff0000000000000000000000000000000000000000ffffffffffffff16336701000000000000008102919091179091553460058190556040519081527fe684a55f31b79eca403df938249029212a5925ec6be8012e099b45bc1019e5d2906020015b60405180910390a2565b600554604051600091339181156108fc02919084818181858888f193505050501580156106bb573d6000803e3d6000fd5b5060055460405190815233907f884edad9ce6fa2440d8a54cc123490eb96d2768479d49ff9c7366125a94243649060200161044a565b60045460ff161561075e576040517f08c379a000000000000000000000000000000000000000000000000000000000815260206004820152601a60248201527f63726561746520616e6f746865722073616c6520706c6561736500000000000060448201526064016104c2565b6000546002546001546040517f23b872dd00000000000000000000000000000000000000000000000000000000815273ffffffffffffffffffffffffffffffffffffffff928316600482015230602482015260448101919091529116906323b872dd90606401600060405180830381600087803b1580156107de57600080fd5b505af11580156107f2573d6000803e3d6000fd5b5050600480547fffffffffffffffffffffffffffffffffffffffffffffffffffffffffffffff00166001179055505060025460055460405173ffffffffffffffffffffffffffffffffffffffff909216917f5e5e995ce3133561afceaa51a9a154d5db228cd7525d34df5185582c18d3df09916106809190815260200190565b60045460ff166108de576040517f08c379a000000000000000000000000000000000000000000000000000000000815260206004820152600b60248201527f6e6f74207374617274656400000000000000000000000000000000000000000060448201526064016104c2565b6005543410156108ed57600080fd5b600554604051600091309181156108fc02919084818181858888f19350505050905080610976576040517f08c379a000000000000000000000000000000000000000000000000000000000815260206004820152601360248201527f6661696c75726520746f2073656e64206574680000000000000000000000000060448201526064016104c2565b6000546001546040517f23b872dd000000000000000000000000000000000000000000000000000000008152306004820152336024820152604481019190915273ffffffffffffffffffffffffffffffffffffffff909116906323b872dd90606401600060405180830381600087803b1580156109f257600080fd5b505af1158015610a06573d6000803e3d6000fd5b5050600480547fffffffffffffffffffffffffffffffffffffffffffffffffffffffffffffff00169055505060055460405190815233907fc55650ccda1011e1cdc769b1fbf546ebb8c97800b6072b49e06cd560305b1d679060200161044a565b600454610100900460ff1615610ad9576040517f08c379a000000000000000000000000000000000000000000000000000000000815260206004820152600760248201527f737461727465640000000000000000000000000000000000000000000000000060448201526064016104c2565b6000546002546001546040517f23b872dd00000000000000000000000000000000000000000000000000000000815273ffffffffffffffffffffffffffffffffffffffff928316600482015230602482015260448101919091529116906323b872dd90606401600060405180830381600087803b158015610b5957600080fd5b505af1158015610b6d573d6000803e3d6000fd5b5050600480547fffffffffffffffffffffffffffffffffffffffffffffffffffffffffffff00ff166101001790819055610bb8925063ffffffff630100000090910416905042610fe1565b6003556002546005546040805173ffffffffffffffffffffffffffffffffffffffff909316835260208301919091527fcfb9c5312b25ec7b809d61e638df25f749eae5d5c25399e1c93d1d319bfd582191015b60405180910390a1565b600454610100900460ff16610c86576040517f08c379a000000000000000000000000000000000000000000000000000000000815260206004820152600b60248201527f6e6f74207374617274656400000000000000000000000000000000000000000060448201526064016104c2565b600354421015610cf2576040517f08c379a000000000000000000000000000000000000000000000000000000000815260206004820152600960248201527f6e6f7420656e646564000000000000000000000000000000000000000000000060448201526064016104c2565b60045462010000900460ff1615610d65576040517f08c379a000000000000000000000000000000000000000000000000000000000815260206004820152600560248201527f656e64656400000000000000000000000000000000000000000000000000000060448201526064016104c2565b600480547fffffffffffffffffffffffffffffffffffffffffffffffffffffffffff00ffff16620100001790819055670100000000000000900473ffffffffffffffffffffffffffffffffffffffff1615610ead57600054600480546001546040517f42842e0e000000000000000000000000000000000000000000000000000000008152309381019390935273ffffffffffffffffffffffffffffffffffffffff670100000000000000909204821660248401526044830152909116906342842e0e90606401600060405180830381600087803b158015610e4657600080fd5b505af1158015610e5a573d6000803e3d6000fd5b505060025460055460405173ffffffffffffffffffffffffffffffffffffffff909216935080156108fc029250906000818181858888f19350505050158015610ea7573d6000803e3d6000fd5b50610f46565b6000546002546001546040517f42842e0e00000000000000000000000000000000000000000000000000000000815230600482015273ffffffffffffffffffffffffffffffffffffffff928316602482015260448101919091529116906342842e0e90606401600060405180830381600087803b158015610f2d57600080fd5b505af1158015610f41573d6000803e3d6000fd5b505050505b6004546005546040805167010000000000000090930473ffffffffffffffffffffffffffffffffffffffff16835260208301919091527f7d7570b046e5ead3a4f3fbc9fa2445113625a1e79823776146316bafed6b8cc59101610c0b565b600060208284031215610fb657600080fd5b813573ffffffffffffffffffffffffffffffffffffffff81168114610fda57600080fd5b9392505050565b6000821982111561101b577f4e487b7100000000000000000000000000000000000000000000000000000000600052601160045260246000fd5b50019056fea26469706673582212209a16d3dcb626af662fa325a5199f8de83a04e62c0e266293340dd70e28617e6664736f6c634300080d0033a264697066735822122075c73162d1217e5216ed0ff0fa0bbf2aa971908f313fd8896aa4260e67dd16e164736f6c634300080d0033",
  "immutableReferences": {},
  "source": "// SPDX-License-Identifier: MIT\npragma solidity ^0.8.13;\n///@author Adam\n\nimport \"./AuctionOrSale.sol\";\n\ncontract SellingFactory{\n    ///@dev il faudrait crer une fonction qui nettoie les tableaux et qui se lance  chaque cration de auctionOrSale\n    address[] allSales; //stockage des collections en vente directe\n    address[] allAuctions;//stockage des collections aux encheres\n\n\n    event NewSale(address indexed _contract, address _seller);\n    event NewAuction(address indexed _contract, address _seller);\n\n    event Debug(address _addr);\n    /**\n    *@dev impossible de faire 2 contrats  cause du problme d'interface\n    *@notice cre un nouveau contrat de vente ou d'auction pour un nft\n    *@param _nft est l'addresse de la collection du nft\n    *@param _nftId est l'id du nft\n    *@param _price est le prix de vente dans le cas d'une sale, et le prix de dpart pour une auction\n    *@param _auctionTime est le temps que doit durer l'enchere. Si il est  zero la fonction cre une vente, sinon une auction \n    */\n    function newSaleOrAuction(address _nft, uint _nftId, uint _price, uint32 _auctionTime)external{\n        if(_auctionTime == 0){\n            AuctionOrSale _contract = new AuctionOrSale(_nft, _nftId, _price, 0, payable(msg.sender));\n            allSales.push(address(_contract));\n            emit NewSale(address(_contract), msg.sender);\n        }\n        else{\n            AuctionOrSale _contract = new AuctionOrSale(_nft, _nftId, _price, _auctionTime, payable(msg.sender));\n            allAuctions.push(address(_contract));\n            emit NewAuction(address(_contract), msg.sender);\n        }\n    }\n}",
  "sourcePath": "/home/amsteradams/developpement/fork-Opensea/contracts/SellingFactory.sol",
  "compiler": {
    "name": "solc",
    "version": "0.8.13+commit.abaa5c0e.Emscripten.clang"
  },
  "schemaVersion": "3.4.6",
  "updatedAt": "2022-05-13T11:00:55.193Z",
  "networkType": "ethereum",
  "devdoc": {
    "kind": "dev",
    "methods": {
      "newSaleOrAuction(address,uint256,uint256,uint32)": {
        "details": "impossible de faire 2 contrats  cause du problme d'interface",
        "params": {
          "_auctionTime": "est le temps que doit durer l'enchere. Si il est  zero la fonction cre une vente, sinon une auction ",
          "_nft": "est l'addresse de la collection du nft",
          "_nftId": "est l'id du nft",
          "_price": "est le prix de vente dans le cas d'une sale, et le prix de dpart pour une auction"
        }
      }
    },
    "stateVariables": {
      "allSales": {
        "details": "il faudrait crer une fonction qui nettoie les tableaux et qui se lance  chaque cration de auctionOrSale"
      }
    },
    "version": 1
  },
  "userdoc": {
    "kind": "user",
    "methods": {
      "newSaleOrAuction(address,uint256,uint256,uint32)": {
        "notice": "cre un nouveau contrat de vente ou d'auction pour un nft"
      }
    },
    "version": 1
  }
}