{
  "contractName": "Storage",
  "abi": [
    {
      "anonymous": false,
      "inputs": [],
      "name": "NewCollectionStored",
      "type": "event"
    },
    {
      "inputs": [
        {
          "internalType": "uint256",
          "name": "",
          "type": "uint256"
        }
      ],
      "name": "collections",
      "outputs": [
        {
          "internalType": "string",
          "name": "name",
          "type": "string"
        },
        {
          "internalType": "string",
          "name": "symbol",
          "type": "string"
        },
        {
          "internalType": "contract SimpleNft",
          "name": "tokenContract",
          "type": "address"
        },
        {
          "internalType": "address",
          "name": "owner",
          "type": "address"
        },
        {
          "internalType": "string",
          "name": "description",
          "type": "string"
        }
      ],
      "stateMutability": "view",
      "type": "function",
      "constant": true
    },
    {
      "inputs": [
        {
          "internalType": "string",
          "name": "_name",
          "type": "string"
        },
        {
          "internalType": "string",
          "name": "_symbol",
          "type": "string"
        },
        {
          "internalType": "contract SimpleNft",
          "name": "_contractAddress",
          "type": "address"
        },
        {
          "internalType": "address",
          "name": "_owner",
          "type": "address"
        },
        {
          "internalType": "string",
          "name": "_description",
          "type": "string"
        }
      ],
      "name": "addCollection",
      "outputs": [],
      "stateMutability": "nonpayable",
      "type": "function"
    },
    {
      "inputs": [
        {
          "internalType": "address",
          "name": "_addr",
          "type": "address"
        }
      ],
      "name": "getCollectionsOf",
      "outputs": [
        {
          "components": [
            {
              "internalType": "string",
              "name": "name",
              "type": "string"
            },
            {
              "internalType": "string",
              "name": "symbol",
              "type": "string"
            },
            {
              "internalType": "contract SimpleNft",
              "name": "tokenContract",
              "type": "address"
            },
            {
              "internalType": "address",
              "name": "owner",
              "type": "address"
            },
            {
              "internalType": "string",
              "name": "description",
              "type": "string"
            }
          ],
          "internalType": "struct Storage.Collection[]",
          "name": "",
          "type": "tuple[]"
        }
      ],
      "stateMutability": "view",
      "type": "function",
      "constant": true
    },
    {
      "inputs": [
        {
          "internalType": "contract SimpleNft",
          "name": "_addr",
          "type": "address"
        }
      ],
      "name": "getCollection",
      "outputs": [
        {
          "components": [
            {
              "internalType": "string",
              "name": "name",
              "type": "string"
            },
            {
              "internalType": "string",
              "name": "symbol",
              "type": "string"
            },
            {
              "internalType": "contract SimpleNft",
              "name": "tokenContract",
              "type": "address"
            },
            {
              "internalType": "address",
              "name": "owner",
              "type": "address"
            },
            {
              "internalType": "string",
              "name": "description",
              "type": "string"
            }
          ],
          "internalType": "struct Storage.Collection",
          "name": "",
          "type": "tuple"
        }
      ],
      "stateMutability": "view",
      "type": "function",
      "constant": true
    },
    {
      "inputs": [],
      "name": "getAllCollections",
      "outputs": [
        {
          "components": [
            {
              "internalType": "string",
              "name": "name",
              "type": "string"
            },
            {
              "internalType": "string",
              "name": "symbol",
              "type": "string"
            },
            {
              "internalType": "contract SimpleNft",
              "name": "tokenContract",
              "type": "address"
            },
            {
              "internalType": "address",
              "name": "owner",
              "type": "address"
            },
            {
              "internalType": "string",
              "name": "description",
              "type": "string"
            }
          ],
          "internalType": "struct Storage.Collection[]",
          "name": "",
          "type": "tuple[]"
        }
      ],
      "stateMutability": "view",
      "type": "function",
      "constant": true
    }
  ],
  "bytecode": "0x608060405234801561001057600080fd5b50611296806100206000396000f3fe608060405234801561001057600080fd5b50600436106100675760003560e01c8063e40de88711610050578063e40de8871461009f578063eed6110e146100bf578063fdbda0ec146100d257600080fd5b8063309e389e1461006c5780636804a95814610081575b600080fd5b61007f61007a366004610e95565b6100f6565b005b610089610298565b6040516100969190611033565b60405180910390f35b6100b26100ad3660046110b3565b6104de565b60405161009691906110d7565b6100896100cd3660046110b3565b6107d5565b6100e56100e03660046110ea565b610b00565b604051610096959493929190611103565b60005463b2d05e00101561016a576040517f08c379a000000000000000000000000000000000000000000000000000000000815260206004820152601760248201527f646f73207269736b2c20636f6e746163742061646d696e000000000000000000604482015260640160405180910390fd5b6040805160a081018252868152602080820187905273ffffffffffffffffffffffffffffffffffffffff808716938301939093529184166060820152608081018390526000805460018101825590805281518051879484936005027f290decd9548b62a8d60345a988386fc84ba6bc95484008f6362f93160ef3e56301926101f89284929190910190610cfd565b5060208281015180516102119260018501920190610cfd565b50604082015160028201805473ffffffffffffffffffffffffffffffffffffffff9283167fffffffffffffffffffffffff00000000000000000000000000000000000000009182161790915560608401516003840180549190931691161790556080820151805161028c916004840191602090910190610cfd565b50505050505050505050565b60606000805480602002602001604051908101604052809291908181526020016000905b828210156104d557838290600052602060002090600502016040518060a00160405290816000820180546102ef9061116c565b80601f016020809104026020016040519081016040528092919081815260200182805461031b9061116c565b80156103685780601f1061033d57610100808354040283529160200191610368565b820191906000526020600020905b81548152906001019060200180831161034b57829003601f168201915b505050505081526020016001820180546103819061116c565b80601f01602080910402602001604051908101604052809291908181526020018280546103ad9061116c565b80156103fa5780601f106103cf576101008083540402835291602001916103fa565b820191906000526020600020905b8154815290600101906020018083116103dd57829003601f168201915b5050509183525050600282015473ffffffffffffffffffffffffffffffffffffffff908116602083015260038301541660408201526004820180546060909201916104449061116c565b80601f01602080910402602001604051908101604052809291908181526020018280546104709061116c565b80156104bd5780601f10610492576101008083540402835291602001916104bd565b820191906000526020600020905b8154815290600101906020018083116104a057829003601f168201915b505050505081525050815260200190600101906102bc565b50505050905090565b61053c6040518060a001604052806060815260200160608152602001600073ffffffffffffffffffffffffffffffffffffffff168152602001600073ffffffffffffffffffffffffffffffffffffffff168152602001606081525090565b60005b6000548110156107cf578273ffffffffffffffffffffffffffffffffffffffff1660008281548110610573576105736111b9565b600091825260209091206002600590920201015473ffffffffffffffffffffffffffffffffffffffff16036107bd57600081815481106105b5576105b56111b9565b90600052602060002090600502016040518060a00160405290816000820180546105de9061116c565b80601f016020809104026020016040519081016040528092919081815260200182805461060a9061116c565b80156106575780601f1061062c57610100808354040283529160200191610657565b820191906000526020600020905b81548152906001019060200180831161063a57829003601f168201915b505050505081526020016001820180546106709061116c565b80601f016020809104026020016040519081016040528092919081815260200182805461069c9061116c565b80156106e95780601f106106be576101008083540402835291602001916106e9565b820191906000526020600020905b8154815290600101906020018083116106cc57829003601f168201915b5050509183525050600282015473ffffffffffffffffffffffffffffffffffffffff908116602083015260038301541660408201526004820180546060909201916107339061116c565b80601f016020809104026020016040519081016040528092919081815260200182805461075f9061116c565b80156107ac5780601f10610781576101008083540402835291602001916107ac565b820191906000526020600020905b81548152906001019060200180831161078f57829003601f168201915b505050505081525050915050919050565b806107c7816111e8565b91505061053f565b50919050565b60606000606060005b600054811015610af85760008082815481106107fc576107fc6111b9565b60009182526020909120600590910201600201546040517f70a0823100000000000000000000000000000000000000000000000000000000815273ffffffffffffffffffffffffffffffffffffffff8881166004830152909116906370a0823190602401602060405180830381865afa15801561087d573d6000803e3d6000fd5b505050506040513d601f19601f820116820180604052508101906108a19190611247565b1115610ae657600081815481106108ba576108ba6111b9565b90600052602060002090600502016040518060a00160405290816000820180546108e39061116c565b80601f016020809104026020016040519081016040528092919081815260200182805461090f9061116c565b801561095c5780601f106109315761010080835404028352916020019161095c565b820191906000526020600020905b81548152906001019060200180831161093f57829003601f168201915b505050505081526020016001820180546109759061116c565b80601f01602080910402602001604051908101604052809291908181526020018280546109a19061116c565b80156109ee5780601f106109c3576101008083540402835291602001916109ee565b820191906000526020600020905b8154815290600101906020018083116109d157829003601f168201915b5050509183525050600282015473ffffffffffffffffffffffffffffffffffffffff90811660208301526003830154166040820152600482018054606090920191610a389061116c565b80601f0160208091040260200160405190810160405280929190818152602001828054610a649061116c565b8015610ab15780601f10610a8657610100808354040283529160200191610ab1565b820191906000526020600020905b815481529060010190602001808311610a9457829003601f168201915b505050505081525050828481518110610acc57610acc6111b9565b60200260200101819052508280610ae2906111e8565b9350505b80610af0816111e8565b9150506107de565b509392505050565b60008181548110610b1057600080fd5b9060005260206000209060050201600091509050806000018054610b339061116c565b80601f0160208091040260200160405190810160405280929190818152602001828054610b5f9061116c565b8015610bac5780601f10610b8157610100808354040283529160200191610bac565b820191906000526020600020905b815481529060010190602001808311610b8f57829003601f168201915b505050505090806001018054610bc19061116c565b80601f0160208091040260200160405190810160405280929190818152602001828054610bed9061116c565b8015610c3a5780601f10610c0f57610100808354040283529160200191610c3a565b820191906000526020600020905b815481529060010190602001808311610c1d57829003601f168201915b50505060028401546003850154600486018054959673ffffffffffffffffffffffffffffffffffffffff93841696929093169450919250610c7a9061116c565b80601f0160208091040260200160405190810160405280929190818152602001828054610ca69061116c565b8015610cf35780601f10610cc857610100808354040283529160200191610cf3565b820191906000526020600020905b815481529060010190602001808311610cd657829003601f168201915b5050505050905085565b828054610d099061116c565b90600052602060002090601f016020900481019282610d2b5760008555610d71565b82601f10610d4457805160ff1916838001178555610d71565b82800160010185558215610d71579182015b82811115610d71578251825591602001919060010190610d56565b50610d7d929150610d81565b5090565b5b80821115610d7d5760008155600101610d82565b7f4e487b7100000000000000000000000000000000000000000000000000000000600052604160045260246000fd5b600082601f830112610dd657600080fd5b813567ffffffffffffffff80821115610df157610df1610d96565b604051601f83017fffffffffffffffffffffffffffffffffffffffffffffffffffffffffffffffe0908116603f01168101908282118183101715610e3757610e37610d96565b81604052838152866020858801011115610e5057600080fd5b836020870160208301376000602085830101528094505050505092915050565b73ffffffffffffffffffffffffffffffffffffffff81168114610e9257600080fd5b50565b600080600080600060a08688031215610ead57600080fd5b853567ffffffffffffffff80821115610ec557600080fd5b610ed189838a01610dc5565b96506020880135915080821115610ee757600080fd5b610ef389838a01610dc5565b955060408801359150610f0582610e70565b909350606087013590610f1782610e70565b90925060808701359080821115610f2d57600080fd5b50610f3a88828901610dc5565b9150509295509295909350565b6000815180845260005b81811015610f6d57602081850181015186830182015201610f51565b81811115610f7f576000602083870101525b50601f017fffffffffffffffffffffffffffffffffffffffffffffffffffffffffffffffe0169290920160200192915050565b6000815160a08452610fc760a0850182610f47565b905060208301518482036020860152610fe08282610f47565b915050604083015173ffffffffffffffffffffffffffffffffffffffff808216604087015280606086015116606087015250506080830151848203608086015261102a8282610f47565b95945050505050565b6000602080830181845280855180835260408601915060408160051b870101925083870160005b828110156110a6577fffffffffffffffffffffffffffffffffffffffffffffffffffffffffffffffc0888603018452611094858351610fb2565b9450928501929085019060010161105a565b5092979650505050505050565b6000602082840312156110c557600080fd5b81356110d081610e70565b9392505050565b6020815260006110d06020830184610fb2565b6000602082840312156110fc57600080fd5b5035919050565b60a08152600061111660a0830188610f47565b82810360208401526111288188610f47565b73ffffffffffffffffffffffffffffffffffffffff878116604086015286166060850152838103608085015290506111608185610f47565b98975050505050505050565b600181811c9082168061118057607f821691505b6020821081036107cf577f4e487b7100000000000000000000000000000000000000000000000000000000600052602260045260246000fd5b7f4e487b7100000000000000000000000000000000000000000000000000000000600052603260045260246000fd5b60007fffffffffffffffffffffffffffffffffffffffffffffffffffffffffffffffff8203611240577f4e487b7100000000000000000000000000000000000000000000000000000000600052601160045260246000fd5b5060010190565b60006020828403121561125957600080fd5b505191905056fea26469706673582212203d7711f197b9bb67ff634f26e024b8fbf9d43bb9898e43fae177ebbf1044f82964736f6c634300080d0033",
  "immutableReferences": {},
  "source": "// SPDX-License-Identifier: GPL-3.0\npragma solidity 0.8.13;\n///@author Adam\n\nimport \"./SimpleNft.sol\";\ncontract Storage{\n    event NewCollectionStored();\n    ///@custom:collections pas besoin de getter du coup je l'ai mise en public\n    Collection[] public collections;\n    struct Collection {\n        string name;\n        string symbol;\n        SimpleNft tokenContract;\n        address owner;\n        string description;\n    }\n\n    /**\n    *@notice add a collection to the storage\n    *@param _contractAddress est l'addresse de la collection qu'on veut ajouter\n    *@dev le premier require est pour quand mme s'assurer qu'on se fasse pas dos\n    //mme si Cyril nous a dit que a poserait pas de soucis, (un peu fait  l'arrache a serait bien qu'on le modifie)\n    */\n    function addCollection(\n        string memory _name,\n        string memory _symbol,\n        SimpleNft _contractAddress,\n        address _owner,\n        string memory _description   \n    )external{\n        require(collections.length <= 3 gwei, \"dos risk, contact admin\");\n        SimpleNft token = SimpleNft(_contractAddress);\n        Collection memory tmp = Collection(_name, _symbol, token,_owner, _description);\n        collections.push(tmp);\n    }\n\n    /**\n    *@return tableau de toutes les collections dont @param:_addr possede des nfts\n    */\n    function getCollectionsOf(address _addr)external view returns(Collection [] memory){\n        uint i;\n        Collection [] memory tmp;\n        for (uint256 index = 0; index < collections.length; index++) {\n            if(collections[index].tokenContract.balanceOf(_addr) > 0){\n                tmp[i] = collections[index];\n                i ++;\n            }\n        }\n        return tmp;\n    }\n\n    function getCollection(SimpleNft _addr)external view returns(Collection memory){\n        for (uint256 index = 0; index < collections.length; index++) {\n            if(collections[index].tokenContract == _addr){\n                return collections[index];\n            }\n        }\n    }  \n\n    function getAllCollections()external view returns(Collection [] memory){      \n            return collections;\n    }\n\n}\n\n",
  "sourcePath": "/home/amsteradams/developpement/fork-Opensea/contracts/Storage.sol",
  "compiler": {
    "name": "solc",
    "version": "0.8.13+commit.abaa5c0e.Emscripten.clang"
  },
  "schemaVersion": "3.4.6",
  "updatedAt": "2022-05-15T19:51:32.745Z",
  "networkType": "ethereum",
  "devdoc": {
    "kind": "dev",
    "methods": {
      "addCollection(string,string,address,address,string)": {
        "details": "le premier require est pour quand mme s'assurer qu'on se fasse pas dos //mme si Cyril nous a dit que a poserait pas de soucis, (un peu fait  l'arrache a serait bien qu'on le modifie)",
        "params": {
          "_contractAddress": "est l'addresse de la collection qu'on veut ajouter"
        }
      },
      "getCollectionsOf(address)": {
        "returns": {
          "_0": "tableau de toutes les collections dont @param:_addr possede des nfts"
        }
      }
    },
    "stateVariables": {
      "collections": {
        "custom:collections": "pas besoin de getter du coup je l'ai mise en public"
      }
    },
    "version": 1
  },
  "userdoc": {
    "kind": "user",
    "methods": {
      "addCollection(string,string,address,address,string)": {
        "notice": "add a collection to the storage"
      }
    },
    "version": 1
  }
}