{
  "contractName": "Storage",
  "abi": [
    {
      "anonymous": false,
      "inputs": [],
      "name": "NewCollectionStored",
      "type": "event"
    },
    {
      "inputs": [
        {
          "internalType": "uint256",
          "name": "",
          "type": "uint256"
        }
      ],
      "name": "collections",
      "outputs": [
        {
          "internalType": "string",
          "name": "name",
          "type": "string"
        },
        {
          "internalType": "string",
          "name": "symbol",
          "type": "string"
        },
        {
          "internalType": "contract simpleNft",
          "name": "tokenContract",
          "type": "address"
        },
        {
          "internalType": "address",
          "name": "owner",
          "type": "address"
        },
        {
          "internalType": "string",
          "name": "baseUri",
          "type": "string"
        }
      ],
      "stateMutability": "view",
      "type": "function",
      "constant": true
    },
    {
      "inputs": [
        {
          "internalType": "string",
          "name": "_name",
          "type": "string"
        },
        {
          "internalType": "string",
          "name": "_symbol",
          "type": "string"
        },
        {
          "internalType": "contract simpleNft",
          "name": "_contractAddress",
          "type": "address"
        },
        {
          "internalType": "address",
          "name": "_owner",
          "type": "address"
        },
        {
          "internalType": "string",
          "name": "_baseUri",
          "type": "string"
        }
      ],
      "name": "addCollection",
      "outputs": [],
      "stateMutability": "nonpayable",
      "type": "function"
    },
    {
      "inputs": [
        {
          "internalType": "address",
          "name": "_addr",
          "type": "address"
        }
      ],
      "name": "getCollectionsOf",
      "outputs": [
        {
          "components": [
            {
              "internalType": "string",
              "name": "name",
              "type": "string"
            },
            {
              "internalType": "string",
              "name": "symbol",
              "type": "string"
            },
            {
              "internalType": "contract simpleNft",
              "name": "tokenContract",
              "type": "address"
            },
            {
              "internalType": "address",
              "name": "owner",
              "type": "address"
            },
            {
              "internalType": "string",
              "name": "baseUri",
              "type": "string"
            }
          ],
          "internalType": "struct Storage.Collection[]",
          "name": "",
          "type": "tuple[]"
        }
      ],
      "stateMutability": "view",
      "type": "function",
      "constant": true
    }
  ],
  "bytecode": "0x608060405234801561001057600080fd5b50610ced806100206000396000f3fe608060405234801561001057600080fd5b50600436106100415760003560e01c8063309e389e14610046578063eed6110e1461005b578063fdbda0ec14610084575b600080fd5b61005961005436600461090a565b6100a8565b005b61006e6100693660046109bc565b61024a565b60405161007b9190610a4b565b60405180910390f35b610097610092366004610b3b565b610575565b60405161007b959493929190610b54565b60005463b2d05e00101561011c576040517f08c379a000000000000000000000000000000000000000000000000000000000815260206004820152601760248201527f646f73207269736b2c20636f6e746163742061646d696e000000000000000000604482015260640160405180910390fd5b6040805160a081018252868152602080820187905273ffffffffffffffffffffffffffffffffffffffff808716938301939093529184166060820152608081018390526000805460018101825590805281518051879484936005027f290decd9548b62a8d60345a988386fc84ba6bc95484008f6362f93160ef3e56301926101aa9284929190910190610772565b5060208281015180516101c39260018501920190610772565b50604082015160028201805473ffffffffffffffffffffffffffffffffffffffff9283167fffffffffffffffffffffffff00000000000000000000000000000000000000009182161790915560608401516003840180549190931691161790556080820151805161023e916004840191602090910190610772565b50505050505050505050565b60606000606060005b60005481101561056d57600080828154811061027157610271610bbd565b60009182526020909120600590910201600201546040517f70a0823100000000000000000000000000000000000000000000000000000000815273ffffffffffffffffffffffffffffffffffffffff8881166004830152909116906370a0823190602401602060405180830381865afa1580156102f2573d6000803e3d6000fd5b505050506040513d601f19601f820116820180604052508101906103169190610bec565b111561055b576000818154811061032f5761032f610bbd565b90600052602060002090600502016040518060a001604052908160008201805461035890610c05565b80601f016020809104026020016040519081016040528092919081815260200182805461038490610c05565b80156103d15780601f106103a6576101008083540402835291602001916103d1565b820191906000526020600020905b8154815290600101906020018083116103b457829003601f168201915b505050505081526020016001820180546103ea90610c05565b80601f016020809104026020016040519081016040528092919081815260200182805461041690610c05565b80156104635780601f1061043857610100808354040283529160200191610463565b820191906000526020600020905b81548152906001019060200180831161044657829003601f168201915b5050509183525050600282015473ffffffffffffffffffffffffffffffffffffffff908116602083015260038301541660408201526004820180546060909201916104ad90610c05565b80601f01602080910402602001604051908101604052809291908181526020018280546104d990610c05565b80156105265780601f106104fb57610100808354040283529160200191610526565b820191906000526020600020905b81548152906001019060200180831161050957829003601f168201915b50505050508152505082848151811061054157610541610bbd565b6020026020010181905250828061055790610c58565b9350505b8061056581610c58565b915050610253565b509392505050565b6000818154811061058557600080fd5b90600052602060002090600502016000915090508060000180546105a890610c05565b80601f01602080910402602001604051908101604052809291908181526020018280546105d490610c05565b80156106215780601f106105f657610100808354040283529160200191610621565b820191906000526020600020905b81548152906001019060200180831161060457829003601f168201915b50505050509080600101805461063690610c05565b80601f016020809104026020016040519081016040528092919081815260200182805461066290610c05565b80156106af5780601f10610684576101008083540402835291602001916106af565b820191906000526020600020905b81548152906001019060200180831161069257829003601f168201915b50505060028401546003850154600486018054959673ffffffffffffffffffffffffffffffffffffffff938416969290931694509192506106ef90610c05565b80601f016020809104026020016040519081016040528092919081815260200182805461071b90610c05565b80156107685780601f1061073d57610100808354040283529160200191610768565b820191906000526020600020905b81548152906001019060200180831161074b57829003601f168201915b5050505050905085565b82805461077e90610c05565b90600052602060002090601f0160209004810192826107a057600085556107e6565b82601f106107b957805160ff19168380011785556107e6565b828001600101855582156107e6579182015b828111156107e65782518255916020019190600101906107cb565b506107f29291506107f6565b5090565b5b808211156107f257600081556001016107f7565b7f4e487b7100000000000000000000000000000000000000000000000000000000600052604160045260246000fd5b600082601f83011261084b57600080fd5b813567ffffffffffffffff808211156108665761086661080b565b604051601f83017fffffffffffffffffffffffffffffffffffffffffffffffffffffffffffffffe0908116603f011681019082821181831017156108ac576108ac61080b565b816040528381528660208588010111156108c557600080fd5b836020870160208301376000602085830101528094505050505092915050565b73ffffffffffffffffffffffffffffffffffffffff8116811461090757600080fd5b50565b600080600080600060a0868803121561092257600080fd5b853567ffffffffffffffff8082111561093a57600080fd5b61094689838a0161083a565b9650602088013591508082111561095c57600080fd5b61096889838a0161083a565b95506040880135915061097a826108e5565b90935060608701359061098c826108e5565b909250608087013590808211156109a257600080fd5b506109af8882890161083a565b9150509295509295909350565b6000602082840312156109ce57600080fd5b81356109d9816108e5565b9392505050565b6000815180845260005b81811015610a06576020818501810151868301820152016109ea565b81811115610a18576000602083870101525b50601f017fffffffffffffffffffffffffffffffffffffffffffffffffffffffffffffffe0169290920160200192915050565b60006020808301818452808551808352604092508286019150828160051b87010184880160005b83811015610b2d577fffffffffffffffffffffffffffffffffffffffffffffffffffffffffffffffc0898403018552815160a08151818652610ab6828701826109e0565b915050888201518582038a870152610ace82826109e0565b838a015173ffffffffffffffffffffffffffffffffffffffff908116888c015260608086015190911690880152608093840151878203948801949094529150610b19905081836109e0565b968901969450505090860190600101610a72565b509098975050505050505050565b600060208284031215610b4d57600080fd5b5035919050565b60a081526000610b6760a08301886109e0565b8281036020840152610b7981886109e0565b73ffffffffffffffffffffffffffffffffffffffff87811660408601528616606085015283810360808501529050610bb181856109e0565b98975050505050505050565b7f4e487b7100000000000000000000000000000000000000000000000000000000600052603260045260246000fd5b600060208284031215610bfe57600080fd5b5051919050565b600181811c90821680610c1957607f821691505b602082108103610c52577f4e487b7100000000000000000000000000000000000000000000000000000000600052602260045260246000fd5b50919050565b60007fffffffffffffffffffffffffffffffffffffffffffffffffffffffffffffffff8203610cb0577f4e487b7100000000000000000000000000000000000000000000000000000000600052601160045260246000fd5b506001019056fea264697066735822122014ab40e345dbd1bc75d27c95fa593a4fcf97ec300d8cb31c0c63e7e509401d9c64736f6c634300080d0033",
  "immutableReferences": {},
  "source": "// SPDX-License-Identifier: GPL-3.0\npragma solidity 0.8.13;\n///@author Adam\n\nimport \"./simpleNft.sol\";\ncontract Storage{\n    event NewCollectionStored();\n    ///@custom:collections pas besoin de getter du coup je l'ai mise en public\n    Collection[] public collections;\n    struct Collection {\n        string name;\n        string symbol;\n        simpleNft tokenContract;\n        address owner;\n        string baseUri;\n    }\n\n    /**\n    *@notice add a collection to the storage\n    *@param _contractAddress est l'addresse de la collection qu'on veut ajouter\n    *@dev le premier require est pour quand mme s'assurer qu'on se fasse pas dos\n    //mme si Cyril nous a dit que a poserait pas de soucis, (un peu fait  l'arrache a serait bien qu'on le modifie)\n    */\n    function addCollection(\n        string memory _name,\n        string memory _symbol,\n        simpleNft _contractAddress,\n        address _owner,\n        string memory _baseUri\n    )external{\n        require(collections.length <= 3 gwei, \"dos risk, contact admin\");\n        simpleNft token = simpleNft(_contractAddress);\n        Collection memory tmp = Collection(_name, _symbol, token,_owner, _baseUri);\n        collections.push(tmp);\n    }\n\n    /**\n    *@return tableau de toutes les collections dont @param:_addr possede des nfts\n    */\n    function getCollectionsOf(address _addr)external view returns(Collection [] memory){\n        uint i;\n        Collection [] memory tmp;\n        for (uint256 index = 0; index < collections.length; index++) {\n            if(collections[index].tokenContract.balanceOf(_addr) > 0){\n                tmp[i] = collections[index];\n                i ++;\n            }\n        }\n        return tmp;\n    }\n}\n\n",
  "sourcePath": "/home/amsteradams/developpement/fork-Opensea/contracts/Storage.sol",
  "compiler": {
    "name": "solc",
    "version": "0.8.13+commit.abaa5c0e.Emscripten.clang"
  },
  "schemaVersion": "3.4.6",
  "updatedAt": "2022-05-13T09:48:09.257Z",
  "networkType": "ethereum",
  "devdoc": {
    "kind": "dev",
    "methods": {
      "addCollection(string,string,address,address,string)": {
        "details": "le premier require est pour quand mme s'assurer qu'on se fasse pas dos //mme si Cyril nous a dit que a poserait pas de soucis, (un peu fait  l'arrache a serait bien qu'on le modifie)",
        "params": {
          "_contractAddress": "est l'addresse de la collection qu'on veut ajouter"
        }
      },
      "getCollectionsOf(address)": {
        "returns": {
          "_0": "tableau de toutes les collections dont @param:_addr possede des nfts"
        }
      }
    },
    "stateVariables": {
      "collections": {
        "custom:collections": "pas besoin de getter du coup je l'ai mise en public"
      }
    },
    "version": 1
  },
  "userdoc": {
    "kind": "user",
    "methods": {
      "addCollection(string,string,address,address,string)": {
        "notice": "add a collection to the storage"
      }
    },
    "version": 1
  }
}