{
  "contractName": "Storage",
  "abi": [
    {
      "anonymous": false,
      "inputs": [],
      "name": "NewCollectionStored",
      "type": "event"
    },
    {
      "inputs": [
        {
          "internalType": "uint256",
          "name": "",
          "type": "uint256"
        }
      ],
      "name": "collections",
      "outputs": [
        {
          "internalType": "string",
          "name": "name",
          "type": "string"
        },
        {
          "internalType": "string",
          "name": "symbol",
          "type": "string"
        },
        {
          "internalType": "contract SimpleNft",
          "name": "tokenContract",
          "type": "address"
        },
        {
          "internalType": "address",
          "name": "owner",
          "type": "address"
        },
        {
          "internalType": "string",
          "name": "description",
          "type": "string"
        }
      ],
      "stateMutability": "view",
      "type": "function",
      "constant": true
    },
    {
      "inputs": [
        {
          "internalType": "string",
          "name": "_name",
          "type": "string"
        },
        {
          "internalType": "string",
          "name": "_symbol",
          "type": "string"
        },
        {
          "internalType": "contract SimpleNft",
          "name": "_contractAddress",
          "type": "address"
        },
        {
          "internalType": "address",
          "name": "_owner",
          "type": "address"
        },
        {
          "internalType": "string",
          "name": "_description",
          "type": "string"
        }
      ],
      "name": "addCollection",
      "outputs": [],
      "stateMutability": "nonpayable",
      "type": "function"
    },
    {
      "inputs": [
        {
          "internalType": "address",
          "name": "_addr",
          "type": "address"
        }
      ],
      "name": "getCollectionsOf",
      "outputs": [
        {
          "components": [
            {
              "internalType": "string",
              "name": "name",
              "type": "string"
            },
            {
              "internalType": "string",
              "name": "symbol",
              "type": "string"
            },
            {
              "internalType": "contract SimpleNft",
              "name": "tokenContract",
              "type": "address"
            },
            {
              "internalType": "address",
              "name": "owner",
              "type": "address"
            },
            {
              "internalType": "string",
              "name": "description",
              "type": "string"
            }
          ],
          "internalType": "struct Storage.Collection[]",
          "name": "",
          "type": "tuple[]"
        }
      ],
      "stateMutability": "view",
      "type": "function",
      "constant": true
    },
    {
      "inputs": [],
      "name": "getAllCollections",
      "outputs": [
        {
          "components": [
            {
              "internalType": "string",
              "name": "name",
              "type": "string"
            },
            {
              "internalType": "string",
              "name": "symbol",
              "type": "string"
            },
            {
              "internalType": "contract SimpleNft",
              "name": "tokenContract",
              "type": "address"
            },
            {
              "internalType": "address",
              "name": "owner",
              "type": "address"
            },
            {
              "internalType": "string",
              "name": "description",
              "type": "string"
            }
          ],
          "internalType": "struct Storage.Collection[]",
          "name": "",
          "type": "tuple[]"
        }
      ],
      "stateMutability": "view",
      "type": "function",
      "constant": true
    }
  ],
  "bytecode": "0x608060405234801561001057600080fd5b50610f46806100206000396000f3fe608060405234801561001057600080fd5b506004361061004c5760003560e01c8063309e389e146100515780636804a95814610066578063eed6110e14610084578063fdbda0ec14610097575b600080fd5b61006461005f366004610b63565b6100bb565b005b61006e61025d565b60405161007b9190610c80565b60405180910390f35b61006e610092366004610d70565b6104a3565b6100aa6100a5366004610d94565b6107ce565b60405161007b959493929190610dad565b60005463b2d05e00101561012f576040517f08c379a000000000000000000000000000000000000000000000000000000000815260206004820152601760248201527f646f73207269736b2c20636f6e746163742061646d696e000000000000000000604482015260640160405180910390fd5b6040805160a081018252868152602080820187905273ffffffffffffffffffffffffffffffffffffffff808716938301939093529184166060820152608081018390526000805460018101825590805281518051879484936005027f290decd9548b62a8d60345a988386fc84ba6bc95484008f6362f93160ef3e56301926101bd92849291909101906109cb565b5060208281015180516101d692600185019201906109cb565b50604082015160028201805473ffffffffffffffffffffffffffffffffffffffff9283167fffffffffffffffffffffffff0000000000000000000000000000000000000000918216179091556060840151600384018054919093169116179055608082015180516102519160048401916020909101906109cb565b50505050505050505050565b60606000805480602002602001604051908101604052809291908181526020016000905b8282101561049a57838290600052602060002090600502016040518060a00160405290816000820180546102b490610e16565b80601f01602080910402602001604051908101604052809291908181526020018280546102e090610e16565b801561032d5780601f106103025761010080835404028352916020019161032d565b820191906000526020600020905b81548152906001019060200180831161031057829003601f168201915b5050505050815260200160018201805461034690610e16565b80601f016020809104026020016040519081016040528092919081815260200182805461037290610e16565b80156103bf5780601f10610394576101008083540402835291602001916103bf565b820191906000526020600020905b8154815290600101906020018083116103a257829003601f168201915b5050509183525050600282015473ffffffffffffffffffffffffffffffffffffffff9081166020830152600383015416604082015260048201805460609092019161040990610e16565b80601f016020809104026020016040519081016040528092919081815260200182805461043590610e16565b80156104825780601f1061045757610100808354040283529160200191610482565b820191906000526020600020905b81548152906001019060200180831161046557829003601f168201915b50505050508152505081526020019060010190610281565b50505050905090565b60606000606060005b6000548110156107c65760008082815481106104ca576104ca610e69565b60009182526020909120600590910201600201546040517f70a0823100000000000000000000000000000000000000000000000000000000815273ffffffffffffffffffffffffffffffffffffffff8881166004830152909116906370a0823190602401602060405180830381865afa15801561054b573d6000803e3d6000fd5b505050506040513d601f19601f8201168201806040525081019061056f9190610e98565b11156107b4576000818154811061058857610588610e69565b90600052602060002090600502016040518060a00160405290816000820180546105b190610e16565b80601f01602080910402602001604051908101604052809291908181526020018280546105dd90610e16565b801561062a5780601f106105ff5761010080835404028352916020019161062a565b820191906000526020600020905b81548152906001019060200180831161060d57829003601f168201915b5050505050815260200160018201805461064390610e16565b80601f016020809104026020016040519081016040528092919081815260200182805461066f90610e16565b80156106bc5780601f10610691576101008083540402835291602001916106bc565b820191906000526020600020905b81548152906001019060200180831161069f57829003601f168201915b5050509183525050600282015473ffffffffffffffffffffffffffffffffffffffff9081166020830152600383015416604082015260048201805460609092019161070690610e16565b80601f016020809104026020016040519081016040528092919081815260200182805461073290610e16565b801561077f5780601f106107545761010080835404028352916020019161077f565b820191906000526020600020905b81548152906001019060200180831161076257829003601f168201915b50505050508152505082848151811061079a5761079a610e69565b602002602001018190525082806107b090610eb1565b9350505b806107be81610eb1565b9150506104ac565b509392505050565b600081815481106107de57600080fd5b906000526020600020906005020160009150905080600001805461080190610e16565b80601f016020809104026020016040519081016040528092919081815260200182805461082d90610e16565b801561087a5780601f1061084f5761010080835404028352916020019161087a565b820191906000526020600020905b81548152906001019060200180831161085d57829003601f168201915b50505050509080600101805461088f90610e16565b80601f01602080910402602001604051908101604052809291908181526020018280546108bb90610e16565b80156109085780601f106108dd57610100808354040283529160200191610908565b820191906000526020600020905b8154815290600101906020018083116108eb57829003601f168201915b50505060028401546003850154600486018054959673ffffffffffffffffffffffffffffffffffffffff9384169692909316945091925061094890610e16565b80601f016020809104026020016040519081016040528092919081815260200182805461097490610e16565b80156109c15780601f10610996576101008083540402835291602001916109c1565b820191906000526020600020905b8154815290600101906020018083116109a457829003601f168201915b5050505050905085565b8280546109d790610e16565b90600052602060002090601f0160209004810192826109f95760008555610a3f565b82601f10610a1257805160ff1916838001178555610a3f565b82800160010185558215610a3f579182015b82811115610a3f578251825591602001919060010190610a24565b50610a4b929150610a4f565b5090565b5b80821115610a4b5760008155600101610a50565b7f4e487b7100000000000000000000000000000000000000000000000000000000600052604160045260246000fd5b600082601f830112610aa457600080fd5b813567ffffffffffffffff80821115610abf57610abf610a64565b604051601f83017fffffffffffffffffffffffffffffffffffffffffffffffffffffffffffffffe0908116603f01168101908282118183101715610b0557610b05610a64565b81604052838152866020858801011115610b1e57600080fd5b836020870160208301376000602085830101528094505050505092915050565b73ffffffffffffffffffffffffffffffffffffffff81168114610b6057600080fd5b50565b600080600080600060a08688031215610b7b57600080fd5b853567ffffffffffffffff80821115610b9357600080fd5b610b9f89838a01610a93565b96506020880135915080821115610bb557600080fd5b610bc189838a01610a93565b955060408801359150610bd382610b3e565b909350606087013590610be582610b3e565b90925060808701359080821115610bfb57600080fd5b50610c0888828901610a93565b9150509295509295909350565b6000815180845260005b81811015610c3b57602081850181015186830182015201610c1f565b81811115610c4d576000602083870101525b50601f017fffffffffffffffffffffffffffffffffffffffffffffffffffffffffffffffe0169290920160200192915050565b60006020808301818452808551808352604092508286019150828160051b87010184880160005b83811015610d62577fffffffffffffffffffffffffffffffffffffffffffffffffffffffffffffffc0898403018552815160a08151818652610ceb82870182610c15565b915050888201518582038a870152610d038282610c15565b838a015173ffffffffffffffffffffffffffffffffffffffff908116888c015260608086015190911690880152608093840151878203948801949094529150610d4e90508183610c15565b968901969450505090860190600101610ca7565b509098975050505050505050565b600060208284031215610d8257600080fd5b8135610d8d81610b3e565b9392505050565b600060208284031215610da657600080fd5b5035919050565b60a081526000610dc060a0830188610c15565b8281036020840152610dd28188610c15565b73ffffffffffffffffffffffffffffffffffffffff87811660408601528616606085015283810360808501529050610e0a8185610c15565b98975050505050505050565b600181811c90821680610e2a57607f821691505b602082108103610e63577f4e487b7100000000000000000000000000000000000000000000000000000000600052602260045260246000fd5b50919050565b7f4e487b7100000000000000000000000000000000000000000000000000000000600052603260045260246000fd5b600060208284031215610eaa57600080fd5b5051919050565b60007fffffffffffffffffffffffffffffffffffffffffffffffffffffffffffffffff8203610f09577f4e487b7100000000000000000000000000000000000000000000000000000000600052601160045260246000fd5b506001019056fea2646970667358221220873cedfc8381992d7b6f4596cd8425392fa937c02972476e1103292f957b156e64736f6c634300080d0033",
  "immutableReferences": {},
  "source": "// SPDX-License-Identifier: GPL-3.0\npragma solidity 0.8.13;\n///@author Adam\n\nimport \"./SimpleNft.sol\";\ncontract Storage{\n    event NewCollectionStored();\n    ///@custom:collections pas besoin de getter du coup je l'ai mise en public\n    Collection[] public collections;\n    struct Collection {\n        string name;\n        string symbol;\n        SimpleNft tokenContract;\n        address owner;\n        string description;\n    }\n\n    /**\n    *@notice add a collection to the storage\n    *@param _contractAddress est l'addresse de la collection qu'on veut ajouter\n    *@dev le premier require est pour quand mme s'assurer qu'on se fasse pas dos\n    //mme si Cyril nous a dit que a poserait pas de soucis, (un peu fait  l'arrache a serait bien qu'on le modifie)\n    */\n    function addCollection(\n        string memory _name,\n        string memory _symbol,\n        SimpleNft _contractAddress,\n        address _owner,\n        string memory _description   \n    )external{\n        require(collections.length <= 3 gwei, \"dos risk, contact admin\");\n        SimpleNft token = SimpleNft(_contractAddress);\n        Collection memory tmp = Collection(_name, _symbol, token,_owner, _description);\n        collections.push(tmp);\n    }\n\n    /**\n    *@return tableau de toutes les collections dont @param:_addr possede des nfts\n    */\n    function getCollectionsOf(address _addr)external view returns(Collection [] memory){\n        uint i;\n        Collection [] memory tmp;\n        for (uint256 index = 0; index < collections.length; index++) {\n            if(collections[index].tokenContract.balanceOf(_addr) > 0){\n                tmp[i] = collections[index];\n                i ++;\n            }\n        }\n        return tmp;\n    }  \n\n    function getAllCollections()external view returns(Collection [] memory){      \n            return collections;\n    }\n\n}\n\n",
  "sourcePath": "/home/amsteradams/developpement/fork-Opensea/contracts/Storage.sol",
  "compiler": {
    "name": "solc",
    "version": "0.8.13+commit.abaa5c0e.Emscripten.clang"
  },
  "schemaVersion": "3.4.6",
  "updatedAt": "2022-05-13T18:19:18.743Z",
  "networkType": "ethereum",
  "devdoc": {
    "kind": "dev",
    "methods": {
      "addCollection(string,string,address,address,string)": {
        "details": "le premier require est pour quand mme s'assurer qu'on se fasse pas dos //mme si Cyril nous a dit que a poserait pas de soucis, (un peu fait  l'arrache a serait bien qu'on le modifie)",
        "params": {
          "_contractAddress": "est l'addresse de la collection qu'on veut ajouter"
        }
      },
      "getCollectionsOf(address)": {
        "returns": {
          "_0": "tableau de toutes les collections dont @param:_addr possede des nfts"
        }
      }
    },
    "stateVariables": {
      "collections": {
        "custom:collections": "pas besoin de getter du coup je l'ai mise en public"
      }
    },
    "version": 1
  },
  "userdoc": {
    "kind": "user",
    "methods": {
      "addCollection(string,string,address,address,string)": {
        "notice": "add a collection to the storage"
      }
    },
    "version": 1
  }
}